{
  "transactions": [
    {
      "hash": null,
      "transactionType": "CALL",
      "contractName": null,
      "contractAddress": "0x36dd42b9b116866e0e23cb38494b9da45f72baca",
      "function": "emergencyWithdraw(address)",
      "arguments": [
        "0x82aF49447D8a07e3bd95BD0d56f35241523fBab1"
      ],
      "transaction": {
        "from": "0x10d6295225dfd19806ee2a916c1b3e4e5db84a97",
        "to": "0x36dd42b9b116866e0e23cb38494b9da45f72baca",
        "gas": "0x9091b",
        "value": "0x0",
        "input": "0x6ff1c9bc00000000000000000000000082af49447d8a07e3bd95bd0d56f35241523fbab1",
        "nonce": "0xe",
        "chainId": "0xa4b1"
      },
      "additionalContracts": [],
      "isFixedGasLimit": false
    },
    {
      "hash": null,
      "transactionType": "CALL",
      "contractName": null,
      "contractAddress": "0x36dd42b9b116866e0e23cb38494b9da45f72baca",
      "function": "emergencyWithdraw(address)",
      "arguments": [
        "0xaf88d065e77c8cC2239327C5EDb3A432268e5831"
      ],
      "transaction": {
        "from": "0x10d6295225dfd19806ee2a916c1b3e4e5db84a97",
        "to": "0x36dd42b9b116866e0e23cb38494b9da45f72baca",
        "gas": "0x8c0f8",
        "value": "0x0",
        "input": "0x6ff1c9bc000000000000000000000000af88d065e77c8cc2239327c5edb3a432268e5831",
        "nonce": "0xf",
        "chainId": "0xa4b1"
      },
      "additionalContracts": [],
      "isFixedGasLimit": false
    }
  ],
  "receipts": [],
  "libraries": [],
  "pending": [],
  "returns": {},
  "timestamp": 1728418316,
  "chain": 42161,
  "commit": "2dfbfeb"
}