{
  "transactions": [
    {
      "hash": "0xde791c84f5e321dee3c3b0ce0c26286afffd63913243266b361bfb3280d994f7",
      "transactionType": "CREATE",
      "contractName": "MockHook",
      "contractAddress": "0xab04ebb03d3c14b971bfa97b3f4d9cf566766d58",
      "function": null,
      "arguments": null,
      "transaction": {
        "from": "0x10d6295225dfd19806ee2a916c1b3e4e5db84a97",
        "gas": "0x1a32c",
        "value": "0x0",
        "input": "0x6080604052348015600f57600080fd5b50603f80601d6000396000f3fe6080604052600080fdfea26469706673582212200c4553c9c18b8638aac64e15ce1c9b598401e11853a366f50c5aeaaffa31628064736f6c63430008140033",
        "nonce": "0x4",
        "chainId": "0xa4b1"
      },
      "additionalContracts": [],
      "isFixedGasLimit": false
    },
    {
      "hash": "0x5bd377e27619555697d9686745f37d77f039d1757dc266e93c88cd0c577c12fb",
      "transactionType": "CALL",
      "contractName": null,
      "contractAddress": "0x3f3c209fc8c04322abb64e7c797dbc1517b75152",
      "function": "registerHook(address,(bool,bool,bool,bool,bool,bool))",
      "arguments": [
        "0xab04EBb03d3c14b971bFa97B3F4d9cF566766d58",
        "(false, false, false, false, false, false)"
      ],
      "transaction": {
        "from": "0x10d6295225dfd19806ee2a916c1b3e4e5db84a97",
        "to": "0x3f3c209fc8c04322abb64e7c797dbc1517b75152",
        "gas": "0x16704",
        "value": "0x0",
        "input": "0xbdab027b000000000000000000000000ab04ebb03d3c14b971bfa97b3f4d9cf566766d58000000000000000000000000000000000000000000000000000000000000000000000000000000000000000000000000000000000000000000000000000000000000000000000000000000000000000000000000000000000000000000000000000000000000000000000000000000000000000000000000000000000000000000000000000000000000000000000000000000000000000000000000000000000000000000000000000000000000000000000000000000000000000000000000",
        "nonce": "0x5",
        "chainId": "0xa4b1"
      },
      "additionalContracts": [],
      "isFixedGasLimit": false
    }
  ],
  "receipts": [
    {
      "status": "0x1",
      "cumulativeGasUsed": "0x6b224",
      "logs": [],
      "logsBloom": "0x00000000000000000000000000000000000000000000000000000000000000000000000000000000000000000000000000000000000000000000000000000000000000000000000000000000000000000000000000000000000000000000000000000000000000000000000000000000000000000000000000000000000000000000000000000000000000000000000000000000000000000000000000000000000000000000000000000000000000000000000000000000000000000000000000000000000000000000000000000000000000000000000000000000000000000000000000000000000000000000000000000000000000000000000000000000",
      "type": "0x2",
      "transactionHash": "0xde791c84f5e321dee3c3b0ce0c26286afffd63913243266b361bfb3280d994f7",
      "transactionIndex": "0x5",
      "blockHash": "0x399df3dd4018c59b58385a522cc84fdf4ca49047c910e21cc23325e8e5c331d6",
      "blockNumber": "0xf0ec226",
      "gasUsed": "0x13212",
      "effectiveGasPrice": "0x989680",
      "from": "0x10d6295225dfd19806ee2a916c1b3e4e5db84a97",
      "to": null,
      "contractAddress": "0xab04ebb03d3c14b971bfa97b3f4d9cf566766d58",
      "gasUsedForL1": "0x2c12",
      "l1BlockNumber": "0x13c58c0"
    },
    {
      "status": "0x1",
      "cumulativeGasUsed": "0x16f57",
      "logs": [
        {
          "address": "0x3f3c209fc8c04322abb64e7c797dbc1517b75152",
          "topics": [
            "0x20f3cf6d68c39945565b9d346072764b3ee941e3130b6414a1cd3b24c0b12229"
          ],
          "data": "0x000000000000000000000000ab04ebb03d3c14b971bfa97b3f4d9cf566766d58000000000000000000000000000000000000000000000000000000000000000000000000000000000000000000000000000000000000000000000000000000000000000000000000000000000000000000000000000000000000000000000000000000000000000000000000000000000000000000000000000000000000000000000000000000000000000000000000000000000000000000000000000000000000000000000000000000000000000000000000000000000000000000000000",
          "blockHash": "0xd69be5cebb3f539528dcb32d1ad3437f0f204237001e4c8fe2220dea490504d4",
          "blockNumber": "0xf0ec22f",
          "transactionHash": "0x5bd377e27619555697d9686745f37d77f039d1757dc266e93c88cd0c577c12fb",
          "transactionIndex": "0x2",
          "logIndex": "0x0",
          "removed": false
        }
      ],
      "logsBloom": "0x00000000000000000000000000000000000000000000000000000000000000000000000000000000000000000000000000000000000000000000000000000000000000000000000000000000000000000000000000000000000000000000000000000000000000000000000000000000002000800000000000000000000000000000100000000000000000000000000000000000000000000000000000000100000000000000000000000000000000000000000000000020000000000000000000000000000000000000000000000000000000000000000000000000000000000000000000000000000100000000000000000000000000000000000000000000",
      "type": "0x2",
      "transactionHash": "0x5bd377e27619555697d9686745f37d77f039d1757dc266e93c88cd0c577c12fb",
      "transactionIndex": "0x2",
      "blockHash": "0xd69be5cebb3f539528dcb32d1ad3437f0f204237001e4c8fe2220dea490504d4",
      "blockNumber": "0xf0ec22f",
      "gasUsed": "0xff88",
      "effectiveGasPrice": "0x989680",
      "from": "0x10d6295225dfd19806ee2a916c1b3e4e5db84a97",
      "to": "0x3f3c209fc8c04322abb64e7c797dbc1517b75152",
      "contractAddress": null,
      "gasUsedForL1": "0x3782",
      "l1BlockNumber": "0x13c58c0"
    }
  ],
  "libraries": [],
  "pending": [],
  "returns": {},
  "timestamp": 1726114723,
  "chain": 42161,
  "commit": "9493537"
}