{
  "transactions": [
    {
      "hash": "0x48d0c9c9a918d91a992203b3228070198b9b0278b9dc540e887950a1ce54410f",
      "transactionType": "CALL",
      "contractName": null,
      "contractAddress": "0x71f468c3a86229c8ad2285b5ca8afb6ef08dcaa7",
      "function": "updateWhitelistHandler(address,bool)",
      "arguments": [
        "0xF26ce9D5A99DD9392c203aC29c4d3b6903Cb2457",
        "true"
      ],
      "transaction": {
        "from": "0x4377cc196ba14dbc6b082b26217d49b5999a151d",
        "to": "0x71f468c3a86229c8ad2285b5ca8afb6ef08dcaa7",
        "gas": "0x1016e",
        "value": "0x0",
        "input": "0x05d293e9000000000000000000000000f26ce9d5a99dd9392c203ac29c4d3b6903cb24570000000000000000000000000000000000000000000000000000000000000001",
        "nonce": "0x10",
        "chainId": "0x2105"
      },
      "additionalContracts": [],
      "isFixedGasLimit": false
    },
    {
      "hash": "0x62d1881a8d6c1ceec7951048afe906286ba2198a872828b96cc74c6629fb3889",
      "transactionType": "CALL",
      "contractName": null,
      "contractAddress": "0xf26ce9d5a99dd9392c203ac29c4d3b6903cb2457",
      "function": "updateHandlerSettings(address,bool,address,uint64,address)",
      "arguments": [
        "0x71f468c3A86229c8AD2285B5cA8aFB6Ef08dCaa7",
        "true",
        "0x0000000000000000000000000000000000000000",
        "21600",
        "0x0000000000000000000000000000000000000000"
      ],
      "transaction": {
        "from": "0x4377cc196ba14dbc6b082b26217d49b5999a151d",
        "to": "0xf26ce9d5a99dd9392c203ac29c4d3b6903cb2457",
        "gas": "0x18c87",
        "value": "0x0",
        "input": "0x893e81ec00000000000000000000000071f468c3a86229c8ad2285b5ca8afb6ef08dcaa70000000000000000000000000000000000000000000000000000000000000001000000000000000000000000000000000000000000000000000000000000000000000000000000000000000000000000000000000000000000000000000054600000000000000000000000000000000000000000000000000000000000000000",
        "nonce": "0x11",
        "chainId": "0x2105"
      },
      "additionalContracts": [],
      "isFixedGasLimit": false
    },
    {
      "hash": "0xcea95fb5d4093f3fd7e63f85ae7dfbf679d6e2abc2a019b92df06421efd26fc4",
      "transactionType": "CALL",
      "contractName": null,
      "contractAddress": "0x71f468c3a86229c8ad2285b5ca8afb6ef08dcaa7",
      "function": "updateWhitelistHandlerWithApp(address,address,bool)",
      "arguments": [
        "0xF26ce9D5A99DD9392c203aC29c4d3b6903Cb2457",
        "0x897c5f3A428067C524e75fB5d0e55324d5888c28",
        "true"
      ],
      "transaction": {
        "from": "0x4377cc196ba14dbc6b082b26217d49b5999a151d",
        "to": "0x71f468c3a86229c8ad2285b5ca8afb6ef08dcaa7",
        "gas": "0x106ef",
        "value": "0x0",
        "input": "0x5ab70f56000000000000000000000000f26ce9d5a99dd9392c203ac29c4d3b6903cb2457000000000000000000000000897c5f3a428067c524e75fb5d0e55324d5888c280000000000000000000000000000000000000000000000000000000000000001",
        "nonce": "0x12",
        "chainId": "0x2105"
      },
      "additionalContracts": [],
      "isFixedGasLimit": false
    }
  ],
  "receipts": [
    {
      "status": "0x1",
      "cumulativeGasUsed": "0xdc22f0",
      "logs": [
        {
          "address": "0x71f468c3a86229c8ad2285b5ca8afb6ef08dcaa7",
          "topics": [
            "0x48fd1bb994f7f5d40a6f2e8e4b9d8060239dc6e26f0ad2be628f9ac597e07b71"
          ],
          "data": "0x000000000000000000000000f26ce9d5a99dd9392c203ac29c4d3b6903cb24570000000000000000000000000000000000000000000000000000000000000001",
          "blockHash": "0x92c2cfd9ccf621ecfcac6c19f34049e42dc14a316ba9c3a7e7a5e2272264b780",
          "blockNumber": "0x145cbf7",
          "transactionHash": "0x48d0c9c9a918d91a992203b3228070198b9b0278b9dc540e887950a1ce54410f",
          "transactionIndex": "0x56",
          "logIndex": "0xa9",
          "removed": false
        }
      ],
      "logsBloom": "0x00000000000000000000000000000000000000020040000000000000000000000000000000000000000000000000000000000000000000000000000000000000000000000000000000000000000000000000000000000000000000000000000000000000000000000000000000000000000002000000001000000000000000000000000000000000000000000000000000000000004001000000000000000000000000000000000000000000000000000000000000000000000000000000000000000000000000000000000000000000000000000000000000000000000000000000000000000000000000000000000000000000000000000000000000000000",
      "type": "0x2",
      "transactionHash": "0x48d0c9c9a918d91a992203b3228070198b9b0278b9dc540e887950a1ce54410f",
      "transactionIndex": "0x56",
      "blockHash": "0x92c2cfd9ccf621ecfcac6c19f34049e42dc14a316ba9c3a7e7a5e2272264b780",
      "blockNumber": "0x145cbf7",
      "gasUsed": "0xba60",
      "effectiveGasPrice": "0x339c2d",
      "from": "0x4377cc196ba14dbc6b082b26217d49b5999a151d",
      "to": "0x71f468c3a86229c8ad2285b5ca8afb6ef08dcaa7",
      "contractAddress": null,
      "l1BaseFeeScalar": "0x8dd",
      "l1BlobBaseFee": "0x1",
      "l1BlobBaseFeeScalar": "0x101c12",
      "l1Fee": "0x7e84664ad",
      "l1GasPrice": "0x22d970e6b",
      "l1GasUsed": "0x640"
    },
    {
      "status": "0x1",
      "cumulativeGasUsed": "0xdd3212",
      "logs": [],
      "logsBloom": "0x00000000000000000000000000000000000000000000000000000000000000000000000000000000000000000000000000000000000000000000000000000000000000000000000000000000000000000000000000000000000000000000000000000000000000000000000000000000000000000000000000000000000000000000000000000000000000000000000000000000000000000000000000000000000000000000000000000000000000000000000000000000000000000000000000000000000000000000000000000000000000000000000000000000000000000000000000000000000000000000000000000000000000000000000000000000",
      "type": "0x2",
      "transactionHash": "0x62d1881a8d6c1ceec7951048afe906286ba2198a872828b96cc74c6629fb3889",
      "transactionIndex": "0x57",
      "blockHash": "0x92c2cfd9ccf621ecfcac6c19f34049e42dc14a316ba9c3a7e7a5e2272264b780",
      "blockNumber": "0x145cbf7",
      "gasUsed": "0x10f22",
      "effectiveGasPrice": "0x339c2d",
      "from": "0x4377cc196ba14dbc6b082b26217d49b5999a151d",
      "to": "0xf26ce9d5a99dd9392c203ac29c4d3b6903cb2457",
      "contractAddress": null,
      "l1BaseFeeScalar": "0x8dd",
      "l1BlobBaseFee": "0x1",
      "l1BlobBaseFeeScalar": "0x101c12",
      "l1Fee": "0x7e84664ad",
      "l1GasPrice": "0x22d970e6b",
      "l1GasUsed": "0x640"
    },
    {
      "status": "0x1",
      "cumulativeGasUsed": "0xddf06f",
      "logs": [
        {
          "address": "0x71f468c3a86229c8ad2285b5ca8afb6ef08dcaa7",
          "topics": [
            "0xdb7869e7b3ce14388c8d68c7590a2ec6f7cc0a26d12c7c3c58e1927c7520e264"
          ],
          "data": "0x000000000000000000000000f26ce9d5a99dd9392c203ac29c4d3b6903cb2457000000000000000000000000897c5f3a428067c524e75fb5d0e55324d5888c280000000000000000000000000000000000000000000000000000000000000001",
          "blockHash": "0x92c2cfd9ccf621ecfcac6c19f34049e42dc14a316ba9c3a7e7a5e2272264b780",
          "blockNumber": "0x145cbf7",
          "transactionHash": "0xcea95fb5d4093f3fd7e63f85ae7dfbf679d6e2abc2a019b92df06421efd26fc4",
          "transactionIndex": "0x58",
          "logIndex": "0xaa",
          "removed": false
        }
      ],
      "logsBloom": "0x00000000000000000000000000000000000000020000000000004000000000000000000000000000000000000000000000000000000000000000000000000000000000000000000000000000000000000010000000000000000000000000000000000000000000000000000000000000000000000000001000000000000000000000000000000000000000000000000000000000000001000000000000000000000000000000000000000000000000000000000000000000000000000000000000000000000000000000000000000000000000000000000000000000000000000000000000000000000000000000000000000000000000000000000000000004",
      "type": "0x2",
      "transactionHash": "0xcea95fb5d4093f3fd7e63f85ae7dfbf679d6e2abc2a019b92df06421efd26fc4",
      "transactionIndex": "0x58",
      "blockHash": "0x92c2cfd9ccf621ecfcac6c19f34049e42dc14a316ba9c3a7e7a5e2272264b780",
      "blockNumber": "0x145cbf7",
      "gasUsed": "0xbe5d",
      "effectiveGasPrice": "0x339c2d",
      "from": "0x4377cc196ba14dbc6b082b26217d49b5999a151d",
      "to": "0x71f468c3a86229c8ad2285b5ca8afb6ef08dcaa7",
      "contractAddress": null,
      "l1BaseFeeScalar": "0x8dd",
      "l1BlobBaseFee": "0x1",
      "l1BlobBaseFeeScalar": "0x101c12",
      "l1Fee": "0x8462b3feb",
      "l1GasPrice": "0x22d970e6b",
      "l1GasUsed": "0x68a"
    }
  ],
  "libraries": [],
  "pending": [],
  "returns": {},
  "timestamp": 1729492185,
  "chain": 8453,
  "commit": "19b895a"
}