{
  "transactions": [
    {
      "hash": "0x49ee4fafbba29bb72faaaa15e1c3fc529552a45295a559d2e2798f1908325793",
      "transactionType": "CALL",
      "contractName": null,
      "contractAddress": "0x2be4413949868f3211652068069c374a58c9c1a0",
      "function": "updatePoolApporvals(address,bool,address,bool,uint256,bool,uint256)",
      "arguments": [
        "0x7Da345f6c8746d1E3818410846f480De4f17A722",
        "true",
        "0x25f746bB206041Ed8dA6F08Ed1D32454A5856D37",
        "true",
        "86400",
        "true",
        "600"
      ],
      "transaction": {
        "from": "0x71e4cf78d8842c452de813eb78e13c0db463fed9",
        "to": "0x2be4413949868f3211652068069c374a58c9c1a0",
        "gas": "0x162b6",
        "value": "0x0",
        "input": "0x14f464990000000000000000000000007da345f6c8746d1e3818410846f480de4f17a722000000000000000000000000000000000000000000000000000000000000000100000000000000000000000025f746bb206041ed8da6f08ed1d32454a5856d370000000000000000000000000000000000000000000000000000000000000001000000000000000000000000000000000000000000000000000000000001518000000000000000000000000000000000000000000000000000000000000000010000000000000000000000000000000000000000000000000000000000000258",
        "nonce": "0x17",
        "chainId": "0x92"
      },
      "additionalContracts": [],
      "isFixedGasLimit": false
    }
  ],
  "receipts": [
    {
      "status": "0x1",
      "cumulativeGasUsed": "0xfdc1",
      "logs": [
        {
          "address": "0x2be4413949868f3211652068069c374a58c9c1a0",
          "topics": [
            "0xcdc112930f00a39a65ef97c74cbf1bb21f8cd84fb9b769f12e4c5a48a942d276"
          ],
          "data": "0x0000000000000000000000007da345f6c8746d1e3818410846f480de4f17a722000000000000000000000000000000000000000000000000000000000000000100000000000000000000000025f746bb206041ed8da6f08ed1d32454a5856d370000000000000000000000000000000000000000000000000000000000000001000000000000000000000000000000000000000000000000000000000001518000000000000000000000000000000000000000000000000000000000000000010000000000000000000000000000000000000000000000000000000000000258",
          "blockHash": "0xff8e9886a057035c9210e21e40d8557e082ed8a1790c377a03012efaa92ff9de",
          "blockNumber": "0x1b5ab8",
          "transactionHash": "0x49ee4fafbba29bb72faaaa15e1c3fc529552a45295a559d2e2798f1908325793",
          "transactionIndex": "0x0",
          "logIndex": "0x0",
          "removed": false
        }
      ],
      "logsBloom": "0x00000000000000000000000000000000000000000000000000000000000000000200000000000000000000000040000000000000000000000000000000000000000000000000200010000000000000000000000000000000000000000000000000000000000000000000000000000000000000000000000000000000000000000000000000000000000000000000000000000000000000000000000000000000000000000000000000000008000000000000000000000000000000000000000000000000000000000000000000000000000000000000000000000000000001000000000000000000000000000000000000000000000000000000000000000000",
      "type": "0x2",
      "transactionHash": "0x49ee4fafbba29bb72faaaa15e1c3fc529552a45295a559d2e2798f1908325793",
      "transactionIndex": "0x0",
      "blockHash": "0xff8e9886a057035c9210e21e40d8557e082ed8a1790c377a03012efaa92ff9de",
      "blockNumber": "0x1b5ab8",
      "gasUsed": "0xfdc1",
      "effectiveGasPrice": "0x3b9aca01",
      "from": "0x71e4cf78d8842c452de813eb78e13c0db463fed9",
      "to": "0x2be4413949868f3211652068069c374a58c9c1a0",
      "contractAddress": null
    }
  ],
  "libraries": [],
  "pending": [],
  "returns": {},
  "timestamp": 1735353858,
  "chain": 146,
  "commit": "307b49a"
}