{
  "transactions": [
    {
      "hash": "0x0d109a3017fa2971cf54e6c51949a2ad3b64b424e85cce29d9ab9f9d8538c54a",
      "transactionType": "CALL",
      "contractName": "OptionPricingLinearV2",
      "contractAddress": "0x4ec7fb89865d40f3de3a7a72546c316b7d7445d0",
      "function": "updateIVs(uint256[],uint256[])",
      "arguments": [
        "[900, 0]",
        "[10, 0]"
      ],
      "transaction": {
        "from": "0x71e4cf78d8842c452de813eb78e13c0db463fed9",
        "to": "0x4ec7fb89865d40f3de3a7a72546c316b7d7445d0",
        "gas": "0x10d33",
        "value": "0x0",
        "input": "0x016d47b5000000000000000000000000000000000000000000000000000000000000004000000000000000000000000000000000000000000000000000000000000000a00000000000000000000000000000000000000000000000000000000000000002000000000000000000000000000000000000000000000000000000000000038400000000000000000000000000000000000000000000000000000000000000000000000000000000000000000000000000000000000000000000000000000002000000000000000000000000000000000000000000000000000000000000000a0000000000000000000000000000000000000000000000000000000000000000",
        "nonce": "0x18",
        "chainId": "0x92"
      },
      "additionalContracts": [],
      "isFixedGasLimit": false
    },
    {
      "hash": "0x48fed703a31c480075f9ea9f0180f4691b723c74126f9b8d15dee25922ec2174",
      "transactionType": "CALL",
      "contractName": "OptionMarketOTMFE",
      "contractAddress": "0x2be4413949868f3211652068069c374a58c9c1a0",
      "function": "updatePoolApporvals(address,bool,address,bool,uint256,bool,uint256)",
      "arguments": [
        "0x71E4Cf78D8842c452DE813EB78E13C0db463Fed9",
        "true",
        "0x25f746bB206041Ed8dA6F08Ed1D32454A5856D37",
        "true",
        "900",
        "true",
        "120"
      ],
      "transaction": {
        "from": "0x71e4cf78d8842c452de813eb78e13c0db463fed9",
        "to": "0x2be4413949868f3211652068069c374a58c9c1a0",
        "gas": "0x17292",
        "value": "0x0",
        "input": "0x14f4649900000000000000000000000071e4cf78d8842c452de813eb78e13c0db463fed9000000000000000000000000000000000000000000000000000000000000000100000000000000000000000025f746bb206041ed8da6f08ed1d32454a5856d370000000000000000000000000000000000000000000000000000000000000001000000000000000000000000000000000000000000000000000000000000038400000000000000000000000000000000000000000000000000000000000000010000000000000000000000000000000000000000000000000000000000000078",
        "nonce": "0x19",
        "chainId": "0x92"
      },
      "additionalContracts": [],
      "isFixedGasLimit": false
    }
  ],
  "receipts": [
    {
      "status": "0x1",
      "cumulativeGasUsed": "0xca54",
      "logs": [],
      "logsBloom": "0x00000000000000000000000000000000000000000000000000000000000000000000000000000000000000000000000000000000000000000000000000000000000000000000000000000000000000000000000000000000000000000000000000000000000000000000000000000000000000000000000000000000000000000000000000000000000000000000000000000000000000000000000000000000000000000000000000000000000000000000000000000000000000000000000000000000000000000000000000000000000000000000000000000000000000000000000000000000000000000000000000000000000000000000000000000000",
      "type": "0x2",
      "transactionHash": "0x0d109a3017fa2971cf54e6c51949a2ad3b64b424e85cce29d9ab9f9d8538c54a",
      "transactionIndex": "0x0",
      "blockHash": "0xf73007f1e7145a423eda3c81b4903b5372820dc4ccf398f039d07834363f706c",
      "blockNumber": "0x1c7354",
      "gasUsed": "0xca54",
      "effectiveGasPrice": "0x3b9aca01",
      "from": "0x71e4cf78d8842c452de813eb78e13c0db463fed9",
      "to": "0x4ec7fb89865d40f3de3a7a72546c316b7d7445d0",
      "contractAddress": null
    },
    {
      "status": "0x1",
      "cumulativeGasUsed": "0x1091a",
      "logs": [
        {
          "address": "0x2be4413949868f3211652068069c374a58c9c1a0",
          "topics": [
            "0xcdc112930f00a39a65ef97c74cbf1bb21f8cd84fb9b769f12e4c5a48a942d276"
          ],
          "data": "0x00000000000000000000000071e4cf78d8842c452de813eb78e13c0db463fed9000000000000000000000000000000000000000000000000000000000000000100000000000000000000000025f746bb206041ed8da6f08ed1d32454a5856d370000000000000000000000000000000000000000000000000000000000000001000000000000000000000000000000000000000000000000000000000000038400000000000000000000000000000000000000000000000000000000000000010000000000000000000000000000000000000000000000000000000000000078",
          "blockHash": "0xcbd397c04ff848802a8487dbd306c5f1758f5e95a4d8d9244face070f7ea8109",
          "blockNumber": "0x1c7355",
          "transactionHash": "0x48fed703a31c480075f9ea9f0180f4691b723c74126f9b8d15dee25922ec2174",
          "transactionIndex": "0x0",
          "logIndex": "0x0",
          "removed": false
        }
      ],
      "logsBloom": "0x00000000000000000000000000000000000000000000000000000000000000000200000000000000000000000040000000000000000000000000000000000000000000000000200010000000000000000000000000000000000000000000000000000000000000000000000000000000000000000000000000000000000000000000000000000000000000000000000000000000000000000000000000000000000000000000000000000008000000000000000000000000000000000000000000000000000000000000000000000000000000000000000000000000000001000000000000000000000000000000000000000000000000000000000000000000",
      "type": "0x2",
      "transactionHash": "0x48fed703a31c480075f9ea9f0180f4691b723c74126f9b8d15dee25922ec2174",
      "transactionIndex": "0x0",
      "blockHash": "0xcbd397c04ff848802a8487dbd306c5f1758f5e95a4d8d9244face070f7ea8109",
      "blockNumber": "0x1c7355",
      "gasUsed": "0x1091a",
      "effectiveGasPrice": "0x3b9aca01",
      "from": "0x71e4cf78d8842c452de813eb78e13c0db463fed9",
      "to": "0x2be4413949868f3211652068069c374a58c9c1a0",
      "contractAddress": null
    }
  ],
  "libraries": [],
  "pending": [],
  "returns": {},
  "timestamp": 1735430373,
  "chain": 146,
  "commit": "5dd5130"
}