{
  "transactions": [
    {
      "hash": "0x82db4c95238f6d9ec30ac2e7017a829715372799065f1a4b9efbcfa529b6954a",
      "transactionType": "CALL",
      "contractName": null,
      "contractAddress": "0x36dd42b9b116866e0e23cb38494b9da45f72baca",
      "function": "emergencyWithdraw(address)",
      "arguments": [
        "0x82aF49447D8a07e3bd95BD0d56f35241523fBab1"
      ],
      "transaction": {
        "from": "0x10d6295225dfd19806ee2a916c1b3e4e5db84a97",
        "to": "0x36dd42b9b116866e0e23cb38494b9da45f72baca",
        "gas": "0x9091b",
        "value": "0x0",
        "input": "0x6ff1c9bc00000000000000000000000082af49447d8a07e3bd95bd0d56f35241523fbab1",
        "nonce": "0xe",
        "chainId": "0xa4b1"
      },
      "additionalContracts": [],
      "isFixedGasLimit": false
    },
    {
      "hash": "0x0a240847df3d1630006d77a384d8d43e9a40ccc54fe15edab669394a97098e2b",
      "transactionType": "CALL",
      "contractName": null,
      "contractAddress": "0x36dd42b9b116866e0e23cb38494b9da45f72baca",
      "function": "emergencyWithdraw(address)",
      "arguments": [
        "0xaf88d065e77c8cC2239327C5EDb3A432268e5831"
      ],
      "transaction": {
        "from": "0x10d6295225dfd19806ee2a916c1b3e4e5db84a97",
        "to": "0x36dd42b9b116866e0e23cb38494b9da45f72baca",
        "gas": "0x8c0f8",
        "value": "0x0",
        "input": "0x6ff1c9bc000000000000000000000000af88d065e77c8cc2239327c5edb3a432268e5831",
        "nonce": "0xf",
        "chainId": "0xa4b1"
      },
      "additionalContracts": [],
      "isFixedGasLimit": false
    }
  ],
  "receipts": [
    {
      "status": "0x1",
      "cumulativeGasUsed": "0xb2f0c",
      "logs": [
        {
          "address": "0x82af49447d8a07e3bd95bd0d56f35241523fbab1",
          "topics": [
            "0xddf252ad1be2c89b69c2b068fc378daa952ba7f163c4a11628f55a4df523b3ef",
            "0x00000000000000000000000036dd42b9b116866e0e23cb38494b9da45f72baca",
            "0x00000000000000000000000010d6295225dfd19806ee2a916c1b3e4e5db84a97"
          ],
          "data": "0x000000000000000000000000000000000000000000000000004769ca060be26c",
          "blockHash": "0x6a585eac8ff13e4c5408781e22a8cb7e3afd58388550fd38d4b442f7736120eb",
          "blockNumber": "0xf9a551d",
          "transactionHash": "0x82db4c95238f6d9ec30ac2e7017a829715372799065f1a4b9efbcfa529b6954a",
          "transactionIndex": "0x2",
          "logIndex": "0x1",
          "removed": false
        }
      ],
      "logsBloom": "0x00000000000000000000000000000000000000000000000000000000000000000000000000000000000000000000008000004000000000000000000000000000000000010000000000040008000000000000000000000000000000000000000000000000000000000000000400000000000000000000000000000010000000000002080000000000000010000000000000000000000000000000000000000000000000000000000000000000000000000000000000000000000080000000000000000002000000000000000000000000000000000000000000000000000000000000000000000000000000000000000000000000000000000000000000000000",
      "type": "0x2",
      "transactionHash": "0x82db4c95238f6d9ec30ac2e7017a829715372799065f1a4b9efbcfa529b6954a",
      "transactionIndex": "0x2",
      "blockHash": "0x6a585eac8ff13e4c5408781e22a8cb7e3afd58388550fd38d4b442f7736120eb",
      "blockNumber": "0xf9a551d",
      "gasUsed": "0x55479",
      "effectiveGasPrice": "0x989680",
      "from": "0x10d6295225dfd19806ee2a916c1b3e4e5db84a97",
      "to": "0x36dd42b9b116866e0e23cb38494b9da45f72baca",
      "contractAddress": null,
      "gasUsedForL1": "0x4653d",
      "l1BlockNumber": "0x13f4322"
    },
    {
      "status": "0x1",
      "cumulativeGasUsed": "0x201a3a",
      "logs": [
        {
          "address": "0xaf88d065e77c8cc2239327c5edb3a432268e5831",
          "topics": [
            "0xddf252ad1be2c89b69c2b068fc378daa952ba7f163c4a11628f55a4df523b3ef",
            "0x00000000000000000000000036dd42b9b116866e0e23cb38494b9da45f72baca",
            "0x00000000000000000000000010d6295225dfd19806ee2a916c1b3e4e5db84a97"
          ],
          "data": "0x00000000000000000000000000000000000000000000000000000000000d0ac3",
          "blockHash": "0x3212998d75c3c65e57fc842bbdbd4a41ed266ba50c1d813c52e41670106eba2c",
          "blockNumber": "0xf9a5523",
          "transactionHash": "0x0a240847df3d1630006d77a384d8d43e9a40ccc54fe15edab669394a97098e2b",
          "transactionIndex": "0x4",
          "logIndex": "0xa",
          "removed": false
        }
      ],
      "logsBloom": "0x00000000000000000000000000000000000000000000000000000000000000000000000000000000000000000000008000000001000000000000000000000000000000000000000000040008000000000000000000000000000000000000000000000000000000000000000000000000000000000000000000000010000000000002080000000000000010000000000000000000000000000000000000000000000000000000000000000000000000000000000000000000000080000000000000002002000000000000000000000000000000000000000000000000000000000000000000000000000000000000200000000000000000000000000000000000",
      "type": "0x2",
      "transactionHash": "0x0a240847df3d1630006d77a384d8d43e9a40ccc54fe15edab669394a97098e2b",
      "transactionIndex": "0x4",
      "blockHash": "0x3212998d75c3c65e57fc842bbdbd4a41ed266ba50c1d813c52e41670106eba2c",
      "blockNumber": "0xf9a5523",
      "gasUsed": "0x51dda",
      "effectiveGasPrice": "0x989680",
      "from": "0x10d6295225dfd19806ee2a916c1b3e4e5db84a97",
      "to": "0x36dd42b9b116866e0e23cb38494b9da45f72baca",
      "contractAddress": null,
      "gasUsedForL1": "0x4653d",
      "l1BlockNumber": "0x13f4323"
    }
  ],
  "libraries": [],
  "pending": [],
  "returns": {},
  "timestamp": 1728418359,
  "chain": 42161,
  "commit": "2dfbfeb"
}