{
  "transactions": [
    {
      "hash": "0xc8e355e5d98caab977f42e8a0e5c842dead1b819f27357464f4dcb212a681286",
      "transactionType": "CALL",
      "contractName": null,
      "contractAddress": "0x4e050d61a475c0b0761d295656c45ee7b9d0ce84",
      "function": "updateWhitelistHandler(address,bool)",
      "arguments": [
        "0xdD71a3F91254C1CE50B6C809D9185d1f2A848598",
        "true"
      ],
      "transaction": {
        "from": "0x10d6295225dfd19806ee2a916c1b3e4e5db84a97",
        "to": "0x4e050d61a475c0b0761d295656c45ee7b9d0ce84",
        "gas": "0x1ebfe",
        "value": "0x0",
        "input": "0x05d293e9000000000000000000000000dd71a3f91254c1ce50b6c809d9185d1f2a8485980000000000000000000000000000000000000000000000000000000000000001",
        "nonce": "0xb",
        "chainId": "0xa4b1"
      },
      "additionalContracts": [],
      "isFixedGasLimit": false
    },
    {
      "hash": "0x8778273cfe002b23074a92a78f562ab41e9701170e0c386e690ac85a39f673b2",
      "transactionType": "CALL",
      "contractName": null,
      "contractAddress": "0xdd71a3f91254c1ce50b6c809d9185d1f2a848598",
      "function": "updateHandlerSettings(address,bool,address,uint64,address)",
      "arguments": [
        "0x4e050D61a475c0B0761D295656C45ee7b9D0Ce84",
        "true",
        "0xab04EBb03d3c14b971bFa97B3F4d9cF566766d58",
        "3600",
        "0x10D6295225dFD19806ee2A916C1B3e4e5db84A97"
      ],
      "transaction": {
        "from": "0x10d6295225dfd19806ee2a916c1b3e4e5db84a97",
        "to": "0xdd71a3f91254c1ce50b6c809d9185d1f2a848598",
        "gas": "0x2e0d3",
        "value": "0x0",
        "input": "0x893e81ec0000000000000000000000004e050d61a475c0b0761d295656c45ee7b9d0ce840000000000000000000000000000000000000000000000000000000000000001000000000000000000000000ab04ebb03d3c14b971bfa97b3f4d9cf566766d580000000000000000000000000000000000000000000000000000000000000e1000000000000000000000000010d6295225dfd19806ee2a916c1b3e4e5db84a97",
        "nonce": "0xc",
        "chainId": "0xa4b1"
      },
      "additionalContracts": [],
      "isFixedGasLimit": false
    },
    {
      "hash": "0xa9890ae452eddef89de5935987dfc75f0e20e604d4d4b627ce36f44df7394fb6",
      "transactionType": "CALL",
      "contractName": null,
      "contractAddress": "0x4e050d61a475c0b0761d295656c45ee7b9d0ce84",
      "function": "updateWhitelistHandlerWithApp(address,address,bool)",
      "arguments": [
        "0xdD71a3F91254C1CE50B6C809D9185d1f2A848598",
        "0x36dd42b9b116866e0e23CB38494B9da45F72bACa",
        "true"
      ],
      "transaction": {
        "from": "0x10d6295225dfd19806ee2a916c1b3e4e5db84a97",
        "to": "0x4e050d61a475c0b0761d295656c45ee7b9d0ce84",
        "gas": "0x21679",
        "value": "0x0",
        "input": "0x5ab70f56000000000000000000000000dd71a3f91254c1ce50b6c809d9185d1f2a84859800000000000000000000000036dd42b9b116866e0e23cb38494b9da45f72baca0000000000000000000000000000000000000000000000000000000000000001",
        "nonce": "0xd",
        "chainId": "0xa4b1"
      },
      "additionalContracts": [],
      "isFixedGasLimit": false
    }
  ],
  "receipts": [
    {
      "status": "0x1",
      "cumulativeGasUsed": "0x37b2be",
      "logs": [
        {
          "address": "0x4e050d61a475c0b0761d295656c45ee7b9d0ce84",
          "topics": [
            "0x48fd1bb994f7f5d40a6f2e8e4b9d8060239dc6e26f0ad2be628f9ac597e07b71"
          ],
          "data": "0x000000000000000000000000dd71a3f91254c1ce50b6c809d9185d1f2a8485980000000000000000000000000000000000000000000000000000000000000001",
          "blockHash": "0x1dfad41809761edba069bf9d715229813d3e006c34e0e2277ed0b42da7cad784",
          "blockNumber": "0xf16a6a0",
          "transactionHash": "0xc8e355e5d98caab977f42e8a0e5c842dead1b819f27357464f4dcb212a681286",
          "transactionIndex": "0x9",
          "logIndex": "0x14",
          "removed": false
        }
      ],
      "logsBloom": "0x00000000000000000000000000000000000000000040000000000000000000000000000000000000000000000000000000000000000000000000000000000000000000000000000000000000000000000000000000000000000000000000000000000000000000000000200000000000000002000000000000000001000000000000000000000000000000000000000000000000004000000000000000000000000000000000000000000000000000000000000000000000000000000000000000000000000000000000000000000000000000000000000000000000000000000000040000000000000000000000000000000000000000000000000000000000",
      "type": "0x2",
      "transactionHash": "0xc8e355e5d98caab977f42e8a0e5c842dead1b819f27357464f4dcb212a681286",
      "transactionIndex": "0x9",
      "blockHash": "0x1dfad41809761edba069bf9d715229813d3e006c34e0e2277ed0b42da7cad784",
      "blockNumber": "0xf16a6a0",
      "gasUsed": "0x149a9",
      "effectiveGasPrice": "0x9ae070",
      "from": "0x10d6295225dfd19806ee2a916c1b3e4e5db84a97",
      "to": "0x4e050d61a475c0b0761d295656c45ee7b9d0ce84",
      "contractAddress": null,
      "gasUsedForL1": "0x8f49",
      "l1BlockNumber": "0x13c82d3"
    },
    {
      "status": "0x1",
      "cumulativeGasUsed": "0x66f0b",
      "logs": [],
      "logsBloom": "0x00000000000000000000000000000000000000000000000000000000000000000000000000000000000000000000000000000000000000000000000000000000000000000000000000000000000000000000000000000000000000000000000000000000000000000000000000000000000000000000000000000000000000000000000000000000000000000000000000000000000000000000000000000000000000000000000000000000000000000000000000000000000000000000000000000000000000000000000000000000000000000000000000000000000000000000000000000000000000000000000000000000000000000000000000000000",
      "type": "0x2",
      "transactionHash": "0x8778273cfe002b23074a92a78f562ab41e9701170e0c386e690ac85a39f673b2",
      "transactionIndex": "0x4",
      "blockHash": "0x541a2d0f62317f69a7c86002a439fb502fcf0ab968c6cc9038c16e81adaef1a0",
      "blockNumber": "0xf16a6a7",
      "gasUsed": "0x1efe5",
      "effectiveGasPrice": "0x9f6c80",
      "from": "0x10d6295225dfd19806ee2a916c1b3e4e5db84a97",
      "to": "0xdd71a3f91254c1ce50b6c809d9185d1f2a848598",
      "contractAddress": null,
      "gasUsedForL1": "0xd507",
      "l1BlockNumber": "0x13c82d3"
    },
    {
      "status": "0x1",
      "cumulativeGasUsed": "0x728b9",
      "logs": [
        {
          "address": "0x4e050d61a475c0b0761d295656c45ee7b9d0ce84",
          "topics": [
            "0xdb7869e7b3ce14388c8d68c7590a2ec6f7cc0a26d12c7c3c58e1927c7520e264"
          ],
          "data": "0x000000000000000000000000dd71a3f91254c1ce50b6c809d9185d1f2a84859800000000000000000000000036dd42b9b116866e0e23cb38494b9da45f72baca0000000000000000000000000000000000000000000000000000000000000001",
          "blockHash": "0x912898f4acd561e714e255cd458a1f5588c913320fc25ad2583d1cec9c288b8d",
          "blockNumber": "0xf16a6ad",
          "transactionHash": "0xa9890ae452eddef89de5935987dfc75f0e20e604d4d4b627ce36f44df7394fb6",
          "transactionIndex": "0x5",
          "logIndex": "0x6",
          "removed": false
        }
      ],
      "logsBloom": "0x00000000000000000000000000000000000000000000000000004000000000000000000000000000000000000000000000000000000000000000000000000000000000000000000000000000000000000010000000000000000000000000000000000000000000000000200000000000000000000000000000000001000000000000000000000000000000000000000000000000000000000000000000000000000000000000000000000000000000000000000000000000000000000000000000000000000000000000000000000000000000000000000000000000000000000000040000000000000000000000000000000000000000000000000000000004",
      "type": "0x2",
      "transactionHash": "0xa9890ae452eddef89de5935987dfc75f0e20e604d4d4b627ce36f44df7394fb6",
      "transactionIndex": "0x5",
      "blockHash": "0x912898f4acd561e714e255cd458a1f5588c913320fc25ad2583d1cec9c288b8d",
      "blockNumber": "0xf16a6ad",
      "gasUsed": "0x16367",
      "effectiveGasPrice": "0x9e3bd0",
      "from": "0x10d6295225dfd19806ee2a916c1b3e4e5db84a97",
      "to": "0x4e050d61a475c0b0761d295656c45ee7b9d0ce84",
      "contractAddress": null,
      "gasUsedForL1": "0xa50a",
      "l1BlockNumber": "0x13c82d3"
    }
  ],
  "libraries": [],
  "pending": [],
  "returns": {},
  "timestamp": 1726244704,
  "chain": 42161,
  "commit": "2dfbfeb"
}