{
  "transactions": [
    {
      "hash": "0xb19907de6d3ca4fd9312794fb9682b3f5855798501e1caa1c0d41a5cfc8d3a51",
      "transactionType": "CALL",
      "contractName": null,
      "contractAddress": "0x4e050d61a475c0b0761d295656c45ee7b9d0ce84",
      "function": "updateWhitelistHandler(address,bool)",
      "arguments": [
        "0x3f3C209Fc8C04322AbB64E7C797dbc1517B75152",
        "true"
      ],
      "transaction": {
        "from": "0x10d6295225dfd19806ee2a916c1b3e4e5db84a97",
        "to": "0x4e050d61a475c0b0761d295656c45ee7b9d0ce84",
        "gas": "0x13869",
        "value": "0x0",
        "input": "0x05d293e90000000000000000000000003f3c209fc8c04322abb64e7c797dbc1517b751520000000000000000000000000000000000000000000000000000000000000001",
        "nonce": "0x6",
        "chainId": "0xa4b1"
      },
      "additionalContracts": [],
      "isFixedGasLimit": false
    },
    {
      "hash": "0x4feac3b77983165c587272c3ff092d0f60b781925fa441def986a1e3dbc699b2",
      "transactionType": "CALL",
      "contractName": null,
      "contractAddress": "0x3f3c209fc8c04322abb64e7c797dbc1517b75152",
      "function": "updateHandlerSettings(address,bool,address,uint64,address)",
      "arguments": [
        "0x4e050D61a475c0B0761D295656C45ee7b9D0Ce84",
        "true",
        "0xab04EBb03d3c14b971bFa97B3F4d9cF566766d58",
        "3600",
        "0x10D6295225dFD19806ee2A916C1B3e4e5db84A97"
      ],
      "transaction": {
        "from": "0x10d6295225dfd19806ee2a916c1b3e4e5db84a97",
        "to": "0x3f3c209fc8c04322abb64e7c797dbc1517b75152",
        "gas": "0x1de6a",
        "value": "0x0",
        "input": "0x893e81ec0000000000000000000000004e050d61a475c0b0761d295656c45ee7b9d0ce840000000000000000000000000000000000000000000000000000000000000001000000000000000000000000ab04ebb03d3c14b971bfa97b3f4d9cf566766d580000000000000000000000000000000000000000000000000000000000000e1000000000000000000000000010d6295225dfd19806ee2a916c1b3e4e5db84a97",
        "nonce": "0x7",
        "chainId": "0xa4b1"
      },
      "additionalContracts": [],
      "isFixedGasLimit": false
    },
    {
      "hash": "0x98a993f8ca75209b2883e20746cb4c5869b8df9bc71cf92aed04d3933c8bd314",
      "transactionType": "CALL",
      "contractName": null,
      "contractAddress": "0x4e050d61a475c0b0761d295656c45ee7b9d0ce84",
      "function": "updateWhitelistHandlerWithApp(address,address,bool)",
      "arguments": [
        "0x3f3C209Fc8C04322AbB64E7C797dbc1517B75152",
        "0x36dd42b9b116866e0e23CB38494B9da45F72bACa",
        "true"
      ],
      "transaction": {
        "from": "0x10d6295225dfd19806ee2a916c1b3e4e5db84a97",
        "to": "0x4e050d61a475c0b0761d295656c45ee7b9d0ce84",
        "gas": "0x147a9",
        "value": "0x0",
        "input": "0x5ab70f560000000000000000000000003f3c209fc8c04322abb64e7c797dbc1517b7515200000000000000000000000036dd42b9b116866e0e23cb38494b9da45f72baca0000000000000000000000000000000000000000000000000000000000000001",
        "nonce": "0x8",
        "chainId": "0xa4b1"
      },
      "additionalContracts": [],
      "isFixedGasLimit": false
    }
  ],
  "receipts": [
    {
      "status": "0x1",
      "cumulativeGasUsed": "0x45737",
      "logs": [
        {
          "address": "0x4e050d61a475c0b0761d295656c45ee7b9d0ce84",
          "topics": [
            "0x48fd1bb994f7f5d40a6f2e8e4b9d8060239dc6e26f0ad2be628f9ac597e07b71"
          ],
          "data": "0x0000000000000000000000003f3c209fc8c04322abb64e7c797dbc1517b751520000000000000000000000000000000000000000000000000000000000000001",
          "blockHash": "0x1304d49740533c51ac84c96dccb61de762ea3a5aa922bb46e774303672ee8b4d",
          "blockNumber": "0xf0ecba5",
          "transactionHash": "0xb19907de6d3ca4fd9312794fb9682b3f5855798501e1caa1c0d41a5cfc8d3a51",
          "transactionIndex": "0x4",
          "logIndex": "0x4",
          "removed": false
        }
      ],
      "logsBloom": "0x00000000000000000000000000000000000000000040000000000000000000000000000000000000000000000000000000000000000000000000000000000000000000000000000000000000000000000000000000000000000000000000000000000000000000000000200000000000000002000000000000000001000000000000000000000000000000000000000000000000004000000000000000000000000000000000000000000000000000000000000000000000000000000000000000000000000000000000000000000000000000000000000000000000000000000000040000000000000000000000000000000000000000000000000000000000",
      "type": "0x2",
      "transactionHash": "0xb19907de6d3ca4fd9312794fb9682b3f5855798501e1caa1c0d41a5cfc8d3a51",
      "transactionIndex": "0x4",
      "blockHash": "0x1304d49740533c51ac84c96dccb61de762ea3a5aa922bb46e774303672ee8b4d",
      "blockNumber": "0xf0ecba5",
      "gasUsed": "0xe18c",
      "effectiveGasPrice": "0x989680",
      "from": "0x10d6295225dfd19806ee2a916c1b3e4e5db84a97",
      "to": "0x4e050d61a475c0b0761d295656c45ee7b9d0ce84",
      "contractAddress": null,
      "gasUsedForL1": "0x272c",
      "l1BlockNumber": "0x13c58f2"
    },
    {
      "status": "0x1",
      "cumulativeGasUsed": "0x388de",
      "logs": [],
      "logsBloom": "0x00000000000000000000000000000000000000000000000000000000000000000000000000000000000000000000000000000000000000000000000000000000000000000000000000000000000000000000000000000000000000000000000000000000000000000000000000000000000000000000000000000000000000000000000000000000000000000000000000000000000000000000000000000000000000000000000000000000000000000000000000000000000000000000000000000000000000000000000000000000000000000000000000000000000000000000000000000000000000000000000000000000000000000000000000000000",
      "type": "0x2",
      "transactionHash": "0x4feac3b77983165c587272c3ff092d0f60b781925fa441def986a1e3dbc699b2",
      "transactionIndex": "0x2",
      "blockHash": "0xe0ce5850e7d84c56af0a8a40ed86b4b607e608ec78a9200c1c18d92eb9d05442",
      "blockNumber": "0xf0ecbab",
      "gasUsed": "0x15709",
      "effectiveGasPrice": "0x989680",
      "from": "0x10d6295225dfd19806ee2a916c1b3e4e5db84a97",
      "to": "0x3f3c209fc8c04322abb64e7c797dbc1517b75152",
      "contractAddress": null,
      "gasUsedForL1": "0x3c2b",
      "l1BlockNumber": "0x13c58f2"
    },
    {
      "status": "0x1",
      "cumulativeGasUsed": "0xec76",
      "logs": [
        {
          "address": "0x4e050d61a475c0b0761d295656c45ee7b9d0ce84",
          "topics": [
            "0xdb7869e7b3ce14388c8d68c7590a2ec6f7cc0a26d12c7c3c58e1927c7520e264"
          ],
          "data": "0x0000000000000000000000003f3c209fc8c04322abb64e7c797dbc1517b7515200000000000000000000000036dd42b9b116866e0e23cb38494b9da45f72baca0000000000000000000000000000000000000000000000000000000000000001",
          "blockHash": "0x2f9fa242b715772953320a47fde20abc9840df66e64a260f20d960c8fba5dda5",
          "blockNumber": "0xf0ecbb4",
          "transactionHash": "0x98a993f8ca75209b2883e20746cb4c5869b8df9bc71cf92aed04d3933c8bd314",
          "transactionIndex": "0x1",
          "logIndex": "0x0",
          "removed": false
        }
      ],
      "logsBloom": "0x00000000000000000000000000000000000000000000000000004000000000000000000000000000000000000000000000000000000000000000000000000000000000000000000000000000000000000010000000000000000000000000000000000000000000000000200000000000000000000000000000000001000000000000000000000000000000000000000000000000000000000000000000000000000000000000000000000000000000000000000000000000000000000000000000000000000000000000000000000000000000000000000000000000000000000000040000000000000000000000000000000000000000000000000000000004",
      "type": "0x2",
      "transactionHash": "0x98a993f8ca75209b2883e20746cb4c5869b8df9bc71cf92aed04d3933c8bd314",
      "transactionIndex": "0x1",
      "blockHash": "0x2f9fa242b715772953320a47fde20abc9840df66e64a260f20d960c8fba5dda5",
      "blockNumber": "0xf0ecbb4",
      "gasUsed": "0xec76",
      "effectiveGasPrice": "0x989680",
      "from": "0x10d6295225dfd19806ee2a916c1b3e4e5db84a97",
      "to": "0x4e050d61a475c0b0761d295656c45ee7b9d0ce84",
      "contractAddress": null,
      "gasUsedForL1": "0x2e19",
      "l1BlockNumber": "0x13c58f4"
    }
  ],
  "libraries": [],
  "pending": [],
  "returns": {},
  "timestamp": 1726115334,
  "chain": 42161,
  "commit": "9493537"
}