{
  "transactions": [
    {
      "hash": "0x4c39bde027f9c0a0feef4aeca4107b4578054b9f32bbc30caac3cd8e1c7bf15c",
      "transactionType": "CALL",
      "contractName": null,
      "contractAddress": "0x71f468c3a86229c8ad2285b5ca8afb6ef08dcaa7",
      "function": "updateWhitelistHandler(address,bool)",
      "arguments": [
        "0xF26ce9D5A99DD9392c203aC29c4d3b6903Cb2457",
        "true"
      ],
      "transaction": {
        "from": "0x4377cc196ba14dbc6b082b26217d49b5999a151d",
        "to": "0x71f468c3a86229c8ad2285b5ca8afb6ef08dcaa7",
        "gas": "0x22fc6",
        "value": "0x0",
        "input": "0x05d293e9000000000000000000000000f26ce9d5a99dd9392c203ac29c4d3b6903cb24570000000000000000000000000000000000000000000000000000000000000001",
        "nonce": "0x10",
        "chainId": "0xa4b1"
      },
      "additionalContracts": [],
      "isFixedGasLimit": false
    },
    {
      "hash": "0xf89875482ffeb63eb8c917cf2d888fd4240c6d623fc1d5594acb4dfb4de0a7ed",
      "transactionType": "CALL",
      "contractName": null,
      "contractAddress": "0xf26ce9d5a99dd9392c203ac29c4d3b6903cb2457",
      "function": "updateHandlerSettings(address,bool,address,uint64,address)",
      "arguments": [
        "0x71f468c3A86229c8AD2285B5cA8aFB6Ef08dCaa7",
        "true",
        "0x0000000000000000000000000000000000000000",
        "21600",
        "0x0000000000000000000000000000000000000000"
      ],
      "transaction": {
        "from": "0x4377cc196ba14dbc6b082b26217d49b5999a151d",
        "to": "0xf26ce9d5a99dd9392c203ac29c4d3b6903cb2457",
        "gas": "0x304f4",
        "value": "0x0",
        "input": "0x893e81ec00000000000000000000000071f468c3a86229c8ad2285b5ca8afb6ef08dcaa70000000000000000000000000000000000000000000000000000000000000001000000000000000000000000000000000000000000000000000000000000000000000000000000000000000000000000000000000000000000000000000054600000000000000000000000000000000000000000000000000000000000000000",
        "nonce": "0x11",
        "chainId": "0xa4b1"
      },
      "additionalContracts": [],
      "isFixedGasLimit": false
    },
    {
      "hash": "0xcd71e14a4face591e625e650867a1bd9fe58aedf24a6869b698213b72209fa76",
      "transactionType": "CALL",
      "contractName": null,
      "contractAddress": "0x71f468c3a86229c8ad2285b5ca8afb6ef08dcaa7",
      "function": "updateWhitelistHandlerWithApp(address,address,bool)",
      "arguments": [
        "0xF26ce9D5A99DD9392c203aC29c4d3b6903Cb2457",
        "0x897c5f3A428067C524e75fB5d0e55324d5888c28",
        "true"
      ],
      "transaction": {
        "from": "0x4377cc196ba14dbc6b082b26217d49b5999a151d",
        "to": "0x71f468c3a86229c8ad2285b5ca8afb6ef08dcaa7",
        "gas": "0x26488",
        "value": "0x0",
        "input": "0x5ab70f56000000000000000000000000f26ce9d5a99dd9392c203ac29c4d3b6903cb2457000000000000000000000000897c5f3a428067c524e75fb5d0e55324d5888c280000000000000000000000000000000000000000000000000000000000000001",
        "nonce": "0x12",
        "chainId": "0xa4b1"
      },
      "additionalContracts": [],
      "isFixedGasLimit": false
    }
  ],
  "receipts": [
    {
      "status": "0x1",
      "cumulativeGasUsed": "0x173eb",
      "logs": [
        {
          "address": "0x71f468c3a86229c8ad2285b5ca8afb6ef08dcaa7",
          "topics": [
            "0x48fd1bb994f7f5d40a6f2e8e4b9d8060239dc6e26f0ad2be628f9ac597e07b71"
          ],
          "data": "0x000000000000000000000000f26ce9d5a99dd9392c203ac29c4d3b6903cb24570000000000000000000000000000000000000000000000000000000000000001",
          "blockHash": "0x877a0c9ae69f3a1e9c803fad7eb056477b4ee552045faa472f1fd686268cb65c",
          "blockNumber": "0xfdb77e9",
          "transactionHash": "0x4c39bde027f9c0a0feef4aeca4107b4578054b9f32bbc30caac3cd8e1c7bf15c",
          "transactionIndex": "0x1",
          "logIndex": "0x0",
          "removed": false
        }
      ],
      "logsBloom": "0x00000000000000000000000000000000000000020040000000000000000000000000000000000000000000000000000000000000000000000000000000000000000000000000000000000000000000000000000000000000000000000000000000000000000000000000000000000000000002000000001000000000000000000000000000000000000000000000000000000000004001000000000000000000000000000000000000000000000000000000000000000000000000000000000000000000000000000000000000000000000000000000000000000000000000000000000000000000000000000000000000000000000000000000000000000000",
      "type": "0x2",
      "transactionHash": "0x4c39bde027f9c0a0feef4aeca4107b4578054b9f32bbc30caac3cd8e1c7bf15c",
      "transactionIndex": "0x1",
      "blockHash": "0x877a0c9ae69f3a1e9c803fad7eb056477b4ee552045faa472f1fd686268cb65c",
      "blockNumber": "0xfdb77e9",
      "gasUsed": "0x173eb",
      "effectiveGasPrice": "0x989680",
      "from": "0x4377cc196ba14dbc6b082b26217d49b5999a151d",
      "to": "0x71f468c3a86229c8ad2285b5ca8afb6ef08dcaa7",
      "contractAddress": null,
      "gasUsedForL1": "0xb98b",
      "l1BlockNumber": "0x1409e8e"
    },
    {
      "status": "0x1",
      "cumulativeGasUsed": "0x53848",
      "logs": [],
      "logsBloom": "0x00000000000000000000000000000000000000000000000000000000000000000000000000000000000000000000000000000000000000000000000000000000000000000000000000000000000000000000000000000000000000000000000000000000000000000000000000000000000000000000000000000000000000000000000000000000000000000000000000000000000000000000000000000000000000000000000000000000000000000000000000000000000000000000000000000000000000000000000000000000000000000000000000000000000000000000000000000000000000000000000000000000000000000000000000000000",
      "type": "0x2",
      "transactionHash": "0xf89875482ffeb63eb8c917cf2d888fd4240c6d623fc1d5594acb4dfb4de0a7ed",
      "transactionIndex": "0x3",
      "blockHash": "0x7cca356c6ae7936b1eb3a48ade01389956eaf0294bbcabd251d08bf5bd7528b5",
      "blockNumber": "0xfdb77f2",
      "gasUsed": "0x20942",
      "effectiveGasPrice": "0x989680",
      "from": "0x4377cc196ba14dbc6b082b26217d49b5999a151d",
      "to": "0xf26ce9d5a99dd9392c203ac29c4d3b6903cb2457",
      "contractAddress": null,
      "gasUsedForL1": "0xfa20",
      "l1BlockNumber": "0x1409e8e"
    },
    {
      "status": "0x1",
      "cumulativeGasUsed": "0x198b6",
      "logs": [
        {
          "address": "0x71f468c3a86229c8ad2285b5ca8afb6ef08dcaa7",
          "topics": [
            "0xdb7869e7b3ce14388c8d68c7590a2ec6f7cc0a26d12c7c3c58e1927c7520e264"
          ],
          "data": "0x000000000000000000000000f26ce9d5a99dd9392c203ac29c4d3b6903cb2457000000000000000000000000897c5f3a428067c524e75fb5d0e55324d5888c280000000000000000000000000000000000000000000000000000000000000001",
          "blockHash": "0x8116d6e4771cfa599c61c65ebb98f5d9c4c2cd5c5e5043c3b16b6b98114d6d07",
          "blockNumber": "0xfdb7804",
          "transactionHash": "0xcd71e14a4face591e625e650867a1bd9fe58aedf24a6869b698213b72209fa76",
          "transactionIndex": "0x1",
          "logIndex": "0x0",
          "removed": false
        }
      ],
      "logsBloom": "0x00000000000000000000000000000000000000020000000000004000000000000000000000000000000000000000000000000000000000000000000000000000000000000000000000000000000000000010000000000000000000000000000000000000000000000000000000000000000000000000001000000000000000000000000000000000000000000000000000000000000001000000000000000000000000000000000000000000000000000000000000000000000000000000000000000000000000000000000000000000000000000000000000000000000000000000000000000000000000000000000000000000000000000000000000000004",
      "type": "0x2",
      "transactionHash": "0xcd71e14a4face591e625e650867a1bd9fe58aedf24a6869b698213b72209fa76",
      "transactionIndex": "0x1",
      "blockHash": "0x8116d6e4771cfa599c61c65ebb98f5d9c4c2cd5c5e5043c3b16b6b98114d6d07",
      "blockNumber": "0xfdb7804",
      "gasUsed": "0x198b6",
      "effectiveGasPrice": "0x989680",
      "from": "0x4377cc196ba14dbc6b082b26217d49b5999a151d",
      "to": "0x71f468c3a86229c8ad2285b5ca8afb6ef08dcaa7",
      "contractAddress": null,
      "gasUsedForL1": "0xda59",
      "l1BlockNumber": "0x1409e8f"
    }
  ],
  "libraries": [],
  "pending": [],
  "returns": {},
  "timestamp": 1729491518,
  "chain": 42161,
  "commit": "19b895a"
}