{
  "transactions": [
    {
      "hash": "0xabbe97b01326eb69d8b18493576230e98cee035cad888eed4bcf5eecdaf27b12",
      "transactionType": "CREATE",
      "contractName": "BoundedTTLHook_0Day",
      "contractAddress": "0xad1e0d790754a7c23345e2d069326663e929a83a",
      "function": null,
      "arguments": null,
      "transaction": {
        "from": "0x4377cc196ba14dbc6b082b26217d49b5999a151d",
        "gas": "0xb266a",
        "value": "0x0",
        "input": "0x6080604052348015600f57600080fd5b503380603557604051631e4fbdf760e01b81526000600482015260240160405180910390fd5b603c816041565b506091565b600080546001600160a01b038381166001600160a01b0319831681178455604051919092169283917f8be0079c531659141344cd1fd0a4f28419497f9722a3daafe3b4186f6b6457e09190a35050565b61054b806100a06000396000f3fe608060405234801561001057600080fd5b50600436106101215760003560e01c806387983d66116100ad578063afd929fe11610071578063afd929fe14610126578063c0be093214610126578063d6067beb14610126578063e849a8b614610126578063f2fde38b1461019a57600080fd5b806387983d66146101265780638b5ef33a146101265780638da5cb5b146101685780638e007f7014610187578063a2b330b51461012657600080fd5b8063653c5ed0116100f4578063653c5ed014610126578063698f324d14610126578063715018a61461014d578063753f19fb1461015557806376f1eceb1461012657600080fd5b806327358593146101265780633fc321731461012657806340b62019146101265780636354b6611461013a575b600080fd5b6101386101343660046103d7565b5050565b005b610138610148366004610460565b6101ad565b610138610278565b6101386101633660046103d7565b61028c565b600054604080516001600160a01b039092168252519081900360200190f35b610138610195366004610484565b6102e4565b6101386101a8366004610460565b610317565b6101b561035a565b6040805160c0810182526000808252602082018181526001838501818152606085018481526080860194855260a08601928352955163bdab027b60e01b815230600482015294511515602486015291511515604485015290511515606484015292511515608483015251151560a48201529051151560c48201526001600160a01b0382169063bdab027b9060e401600060405180830381600087803b15801561025d57600080fd5b505af1158015610271573d6000803e3d6000fd5b5050505050565b61028061035a565b61028a6000610387565b565b60008061029b838501856104c2565b6001600160a01b038216600090815260016020526040902054919350915060ff166102c557600080fd5b620151806102d342836104ee565b11156102de57600080fd5b50505050565b6102ec61035a565b6001600160a01b03919091166000908152600160205260409020805460ff1916911515919091179055565b61031f61035a565b6001600160a01b03811661034e57604051631e4fbdf760e01b8152600060048201526024015b60405180910390fd5b61035781610387565b50565b6000546001600160a01b0316331461028a5760405163118cdaa760e01b8152336004820152602401610345565b600080546001600160a01b038381166001600160a01b0319831681178455604051919092169283917f8be0079c531659141344cd1fd0a4f28419497f9722a3daafe3b4186f6b6457e09190a35050565b600080602083850312156103ea57600080fd5b823567ffffffffffffffff81111561040157600080fd5b8301601f8101851361041257600080fd5b803567ffffffffffffffff81111561042957600080fd5b85602082840101111561043b57600080fd5b6020919091019590945092505050565b6001600160a01b038116811461035757600080fd5b60006020828403121561047257600080fd5b813561047d8161044b565b9392505050565b6000806040838503121561049757600080fd5b82356104a28161044b565b9150602083013580151581146104b757600080fd5b809150509250929050565b600080604083850312156104d557600080fd5b82356104e08161044b565b946020939093013593505050565b8181038181111561050f57634e487b7160e01b600052601160045260246000fd5b9291505056fea264697066735822122031ea2e1514b877e658937fcfc32f09c3e70868ef7061508a4da1e64bad710fcb64736f6c634300081a0033",
        "nonce": "0x13",
        "chainId": "0xa4b1"
      },
      "additionalContracts": [],
      "isFixedGasLimit": false
    },
    {
      "hash": "0xf3538847cef32a9a35b25f80370bb0601e2ecb09d351ff379e35b0af2291870a",
      "transactionType": "CALL",
      "contractName": null,
      "contractAddress": "0xf26ce9d5a99dd9392c203ac29c4d3b6903cb2457",
      "function": "registerHook(address,(bool,bool,bool,bool,bool,bool))",
      "arguments": [
        "0xAD1E0d790754a7C23345E2D069326663e929A83A",
        "(false, false, true, false, false, true)"
      ],
      "transaction": {
        "from": "0x4377cc196ba14dbc6b082b26217d49b5999a151d",
        "to": "0xf26ce9d5a99dd9392c203ac29c4d3b6903cb2457",
        "gas": "0x247fc",
        "value": "0x0",
        "input": "0xbdab027b000000000000000000000000ad1e0d790754a7c23345e2d069326663e929a83a000000000000000000000000000000000000000000000000000000000000000000000000000000000000000000000000000000000000000000000000000000000000000000000000000000000000000000000000000000000000000000000001000000000000000000000000000000000000000000000000000000000000000000000000000000000000000000000000000000000000000000000000000000000000000000000000000000000000000000000000000000000000000000000001",
        "nonce": "0x14",
        "chainId": "0xa4b1"
      },
      "additionalContracts": [],
      "isFixedGasLimit": false
    },
    {
      "hash": "0xf152195dff44c2432e590313adc28f09177e4e399f027cdc75b10c91d2f9f14f",
      "transactionType": "CALL",
      "contractName": "BoundedTTLHook_0Day",
      "contractAddress": "0xad1e0d790754a7c23345e2d069326663e929a83a",
      "function": "updateWhitelistedAppsStatus(address,bool)",
      "arguments": [
        "0x897c5f3A428067C524e75fB5d0e55324d5888c28",
        "true"
      ],
      "transaction": {
        "from": "0x4377cc196ba14dbc6b082b26217d49b5999a151d",
        "to": "0xad1e0d790754a7c23345e2d069326663e929a83a",
        "gas": "0x117f8",
        "value": "0x0",
        "input": "0x8e007f70000000000000000000000000897c5f3a428067c524e75fb5d0e55324d5888c280000000000000000000000000000000000000000000000000000000000000001",
        "nonce": "0x15",
        "chainId": "0xa4b1"
      },
      "additionalContracts": [],
      "isFixedGasLimit": false
    },
    {
      "hash": "0x6be6251174186932c3a3c1d16d6759156a67cd4d1d30b0276912175a3e98f138",
      "transactionType": "CREATE",
      "contractName": "BoundedTTLHook_1Week",
      "contractAddress": "0xe9000001762ada8932fbcc27020fd4b92a1d8d05",
      "function": null,
      "arguments": null,
      "transaction": {
        "from": "0x4377cc196ba14dbc6b082b26217d49b5999a151d",
        "gas": "0xb27ec",
        "value": "0x0",
        "input": "0x6080604052348015600f57600080fd5b503380603557604051631e4fbdf760e01b81526000600482015260240160405180910390fd5b603c816041565b506091565b600080546001600160a01b038381166001600160a01b0319831681178455604051919092169283917f8be0079c531659141344cd1fd0a4f28419497f9722a3daafe3b4186f6b6457e09190a35050565b61054b806100a06000396000f3fe608060405234801561001057600080fd5b50600436106101215760003560e01c806387983d66116100ad578063afd929fe11610071578063afd929fe14610126578063c0be093214610126578063d6067beb14610126578063e849a8b614610126578063f2fde38b1461019a57600080fd5b806387983d66146101265780638b5ef33a146101265780638da5cb5b146101685780638e007f7014610187578063a2b330b51461012657600080fd5b8063653c5ed0116100f4578063653c5ed014610126578063698f324d14610126578063715018a61461014d578063753f19fb1461015557806376f1eceb1461012657600080fd5b806327358593146101265780633fc321731461012657806340b62019146101265780636354b6611461013a575b600080fd5b6101386101343660046103d7565b5050565b005b610138610148366004610460565b6101ad565b610138610278565b6101386101633660046103d7565b61028c565b600054604080516001600160a01b039092168252519081900360200190f35b610138610195366004610484565b6102e4565b6101386101a8366004610460565b610317565b6101b561035a565b6040805160c0810182526000808252602082018181526001838501818152606085018481526080860194855260a08601928352955163bdab027b60e01b815230600482015294511515602486015291511515604485015290511515606484015292511515608483015251151560a48201529051151560c48201526001600160a01b0382169063bdab027b9060e401600060405180830381600087803b15801561025d57600080fd5b505af1158015610271573d6000803e3d6000fd5b5050505050565b61028061035a565b61028a6000610387565b565b60008061029b838501856104c2565b6001600160a01b038216600090815260016020526040902054919350915060ff166102c557600080fd5b62093a806102d342836104ee565b11156102de57600080fd5b50505050565b6102ec61035a565b6001600160a01b03919091166000908152600160205260409020805460ff1916911515919091179055565b61031f61035a565b6001600160a01b03811661034e57604051631e4fbdf760e01b8152600060048201526024015b60405180910390fd5b61035781610387565b50565b6000546001600160a01b0316331461028a5760405163118cdaa760e01b8152336004820152602401610345565b600080546001600160a01b038381166001600160a01b0319831681178455604051919092169283917f8be0079c531659141344cd1fd0a4f28419497f9722a3daafe3b4186f6b6457e09190a35050565b600080602083850312156103ea57600080fd5b823567ffffffffffffffff81111561040157600080fd5b8301601f8101851361041257600080fd5b803567ffffffffffffffff81111561042957600080fd5b85602082840101111561043b57600080fd5b6020919091019590945092505050565b6001600160a01b038116811461035757600080fd5b60006020828403121561047257600080fd5b813561047d8161044b565b9392505050565b6000806040838503121561049757600080fd5b82356104a28161044b565b9150602083013580151581146104b757600080fd5b809150509250929050565b600080604083850312156104d557600080fd5b82356104e08161044b565b946020939093013593505050565b8181038181111561050f57634e487b7160e01b600052601160045260246000fd5b9291505056fea2646970667358221220d1998ec825871431b289b2b844515f2669a2bf6b71f2899500125f5d161002eb64736f6c634300081a0033",
        "nonce": "0x16",
        "chainId": "0xa4b1"
      },
      "additionalContracts": [],
      "isFixedGasLimit": false
    },
    {
      "hash": "0xe6a2d6ce5803925934ab21fb9d2b7f60e7bc89c43b47067d31e81a1786341b70",
      "transactionType": "CALL",
      "contractName": null,
      "contractAddress": "0xf26ce9d5a99dd9392c203ac29c4d3b6903cb2457",
      "function": "registerHook(address,(bool,bool,bool,bool,bool,bool))",
      "arguments": [
        "0xE9000001762aDa8932fBcc27020FD4B92A1D8d05",
        "(false, false, true, false, false, true)"
      ],
      "transaction": {
        "from": "0x4377cc196ba14dbc6b082b26217d49b5999a151d",
        "to": "0xf26ce9d5a99dd9392c203ac29c4d3b6903cb2457",
        "gas": "0x248a6",
        "value": "0x0",
        "input": "0xbdab027b000000000000000000000000e9000001762ada8932fbcc27020fd4b92a1d8d05000000000000000000000000000000000000000000000000000000000000000000000000000000000000000000000000000000000000000000000000000000000000000000000000000000000000000000000000000000000000000000000001000000000000000000000000000000000000000000000000000000000000000000000000000000000000000000000000000000000000000000000000000000000000000000000000000000000000000000000000000000000000000000000001",
        "nonce": "0x17",
        "chainId": "0xa4b1"
      },
      "additionalContracts": [],
      "isFixedGasLimit": false
    },
    {
      "hash": "0xf6387946611017d8ce53bd10fd175a416346bcf7833552c5e3cb8aec835bc169",
      "transactionType": "CALL",
      "contractName": "BoundedTTLHook_1Week",
      "contractAddress": "0xe9000001762ada8932fbcc27020fd4b92a1d8d05",
      "function": "updateWhitelistedAppsStatus(address,bool)",
      "arguments": [
        "0x897c5f3A428067C524e75fB5d0e55324d5888c28",
        "true"
      ],
      "transaction": {
        "from": "0x4377cc196ba14dbc6b082b26217d49b5999a151d",
        "to": "0xe9000001762ada8932fbcc27020fd4b92a1d8d05",
        "gas": "0x117f8",
        "value": "0x0",
        "input": "0x8e007f70000000000000000000000000897c5f3a428067c524e75fb5d0e55324d5888c280000000000000000000000000000000000000000000000000000000000000001",
        "nonce": "0x18",
        "chainId": "0xa4b1"
      },
      "additionalContracts": [],
      "isFixedGasLimit": false
    }
  ],
  "receipts": [
    {
      "status": "0x1",
      "cumulativeGasUsed": "0xf6b45",
      "logs": [
        {
          "address": "0xad1e0d790754a7c23345e2d069326663e929a83a",
          "topics": [
            "0x8be0079c531659141344cd1fd0a4f28419497f9722a3daafe3b4186f6b6457e0",
            "0x0000000000000000000000000000000000000000000000000000000000000000",
            "0x0000000000000000000000004377cc196ba14dbc6b082b26217d49b5999a151d"
          ],
          "data": "0x",
          "blockHash": "0xe26edcca4a4adfa165c498d71c5e9583699dd5fd74aa52c1f6bc2efea39cb575",
          "blockNumber": "0xfe4e1d8",
          "transactionHash": "0xabbe97b01326eb69d8b18493576230e98cee035cad888eed4bcf5eecdaf27b12",
          "transactionIndex": "0x4",
          "logIndex": "0x8",
          "removed": false
        }
      ],
      "logsBloom": "0x00000000000000000000000000000000000000000000000000800000000000000080000000000000000000000000000100000000000000000000000000000000000000000000000000000000000000000001000000000000000000000000000000000000020000000000000000000800000000000000000000000000000000400000000000000000000000000000000000000000000000000000000000000000000000000000000000000000000000000000000000004000000000000004000000000000000000000000000000000000000000000000000000000000000020000000800000000000000000000000000000000000000000000000000008000000",
      "type": "0x2",
      "transactionHash": "0xabbe97b01326eb69d8b18493576230e98cee035cad888eed4bcf5eecdaf27b12",
      "transactionIndex": "0x4",
      "blockHash": "0xe26edcca4a4adfa165c498d71c5e9583699dd5fd74aa52c1f6bc2efea39cb575",
      "blockNumber": "0xfe4e1d8",
      "gasUsed": "0x82223",
      "effectiveGasPrice": "0x989680",
      "from": "0x4377cc196ba14dbc6b082b26217d49b5999a151d",
      "to": null,
      "contractAddress": "0xad1e0d790754a7c23345e2d069326663e929a83a",
      "gasUsedForL1": "0x275d8",
      "l1BlockNumber": "0x140d0c2"
    },
    {
      "status": "0x1",
      "cumulativeGasUsed": "0x19af8",
      "logs": [
        {
          "address": "0xf26ce9d5a99dd9392c203ac29c4d3b6903cb2457",
          "topics": [
            "0x20f3cf6d68c39945565b9d346072764b3ee941e3130b6414a1cd3b24c0b12229"
          ],
          "data": "0x000000000000000000000000ad1e0d790754a7c23345e2d069326663e929a83a000000000000000000000000000000000000000000000000000000000000000000000000000000000000000000000000000000000000000000000000000000000000000000000000000000000000000000000000000000000000000000000001000000000000000000000000000000000000000000000000000000000000000000000000000000000000000000000000000000000000000000000000000000000000000000000000000000000000000000000000000000000000000000000001",
          "blockHash": "0x0abb1747158fd1ccd3e19c90165cf8f8f81e5de378a52cb5aefdb45fe8fcf1b2",
          "blockNumber": "0xfe4e1e1",
          "transactionHash": "0xf3538847cef32a9a35b25f80370bb0601e2ecb09d351ff379e35b0af2291870a",
          "transactionIndex": "0x1",
          "logIndex": "0x0",
          "removed": false
        }
      ],
      "logsBloom": "0x00000000000000000000000000000000000000000000000000000000000000000000000000000000000000000000000000000000000000000000000000000000000000000008000020000000000000000000000000000000000000000000000000000000000000000000000000000000002000800000000000000000000000000000000000000000000000000000000000000000000000000000000000000000000000000000000000000000000000000000000000000020000000000000000000000010000000000000000000000000000000000000000000000000000000000000000000000000000000000000000000000000000000000000000000000000",
      "type": "0x2",
      "transactionHash": "0xf3538847cef32a9a35b25f80370bb0601e2ecb09d351ff379e35b0af2291870a",
      "transactionIndex": "0x1",
      "blockHash": "0x0abb1747158fd1ccd3e19c90165cf8f8f81e5de378a52cb5aefdb45fe8fcf1b2",
      "blockNumber": "0xfe4e1e1",
      "gasUsed": "0x19af8",
      "effectiveGasPrice": "0x989680",
      "from": "0x4377cc196ba14dbc6b082b26217d49b5999a151d",
      "to": "0xf26ce9d5a99dd9392c203ac29c4d3b6903cb2457",
      "contractAddress": null,
      "gasUsedForL1": "0x854a",
      "l1BlockNumber": "0x140d0c2"
    },
    {
      "status": "0x1",
      "cumulativeGasUsed": "0x3bf87",
      "logs": [],
      "logsBloom": "0x00000000000000000000000000000000000000000000000000000000000000000000000000000000000000000000000000000000000000000000000000000000000000000000000000000000000000000000000000000000000000000000000000000000000000000000000000000000000000000000000000000000000000000000000000000000000000000000000000000000000000000000000000000000000000000000000000000000000000000000000000000000000000000000000000000000000000000000000000000000000000000000000000000000000000000000000000000000000000000000000000000000000000000000000000000000",
      "type": "0x2",
      "transactionHash": "0xf152195dff44c2432e590313adc28f09177e4e399f027cdc75b10c91d2f9f14f",
      "transactionIndex": "0x2",
      "blockHash": "0x2f46688272c5d738c96815b9814226445f465a26b1c808cb079b5ab85bdcc4b3",
      "blockNumber": "0xfe4e1eb",
      "gasUsed": "0x11820",
      "effectiveGasPrice": "0x989680",
      "from": "0x4377cc196ba14dbc6b082b26217d49b5999a151d",
      "to": "0xad1e0d790754a7c23345e2d069326663e929a83a",
      "contractAddress": null,
      "gasUsedForL1": "0x62df",
      "l1BlockNumber": "0x140d0c2"
    },
    {
      "status": "0x1",
      "cumulativeGasUsed": "0x8232f",
      "logs": [
        {
          "address": "0xe9000001762ada8932fbcc27020fd4b92a1d8d05",
          "topics": [
            "0x8be0079c531659141344cd1fd0a4f28419497f9722a3daafe3b4186f6b6457e0",
            "0x0000000000000000000000000000000000000000000000000000000000000000",
            "0x0000000000000000000000004377cc196ba14dbc6b082b26217d49b5999a151d"
          ],
          "data": "0x",
          "blockHash": "0xe01aa10c22c819da7b66fb08907d027c87515903e59e39689911fd1d42369e21",
          "blockNumber": "0xfe4e1f5",
          "transactionHash": "0x6be6251174186932c3a3c1d16d6759156a67cd4d1d30b0276912175a3e98f138",
          "transactionIndex": "0x1",
          "logIndex": "0x0",
          "removed": false
        }
      ],
      "logsBloom": "0x00000000000000000000000000000000000010000000000000800000000000000000000000000000000000000000000000000000000000000000000000000000000000000000000000000000000000000001000000000000000000000000000000000000020000000000000000000800000000000000000000000000000000400000000000000000000200000000000000000000000000000000000000000000000000000000000000000000000000000000000000004000000000000004000000000000002000000000000000000000000000000000000000000000000020000000000000000000000000000000000000000000000000000000000008000000",
      "type": "0x2",
      "transactionHash": "0x6be6251174186932c3a3c1d16d6759156a67cd4d1d30b0276912175a3e98f138",
      "transactionIndex": "0x1",
      "blockHash": "0xe01aa10c22c819da7b66fb08907d027c87515903e59e39689911fd1d42369e21",
      "blockNumber": "0xfe4e1f5",
      "gasUsed": "0x8232f",
      "effectiveGasPrice": "0x989680",
      "from": "0x4377cc196ba14dbc6b082b26217d49b5999a151d",
      "to": null,
      "contractAddress": "0xe9000001762ada8932fbcc27020fd4b92a1d8d05",
      "gasUsedForL1": "0x276f0",
      "l1BlockNumber": "0x140d0c3"
    },
    {
      "status": "0x1",
      "cumulativeGasUsed": "0x19ae0",
      "logs": [
        {
          "address": "0xf26ce9d5a99dd9392c203ac29c4d3b6903cb2457",
          "topics": [
            "0x20f3cf6d68c39945565b9d346072764b3ee941e3130b6414a1cd3b24c0b12229"
          ],
          "data": "0x000000000000000000000000e9000001762ada8932fbcc27020fd4b92a1d8d05000000000000000000000000000000000000000000000000000000000000000000000000000000000000000000000000000000000000000000000000000000000000000000000000000000000000000000000000000000000000000000000001000000000000000000000000000000000000000000000000000000000000000000000000000000000000000000000000000000000000000000000000000000000000000000000000000000000000000000000000000000000000000000000001",
          "blockHash": "0x1590c6fe9c8fff56b5d26346c420667663277b57fc7668f37518099bcab03c4f",
          "blockNumber": "0xfe4e1fe",
          "transactionHash": "0xe6a2d6ce5803925934ab21fb9d2b7f60e7bc89c43b47067d31e81a1786341b70",
          "transactionIndex": "0x1",
          "logIndex": "0x0",
          "removed": false
        }
      ],
      "logsBloom": "0x00000000000000000000000000000000000000000000000000000000000000000000000000000000000000000000000000000000000000000000000000000000000000000008000020000000000000000000000000000000000000000000000000000000000000000000000000000000002000800000000000000000000000000000000000000000000000000000000000000000000000000000000000000000000000000000000000000000000000000000000000000020000000000000000000000010000000000000000000000000000000000000000000000000000000000000000000000000000000000000000000000000000000000000000000000000",
      "type": "0x2",
      "transactionHash": "0xe6a2d6ce5803925934ab21fb9d2b7f60e7bc89c43b47067d31e81a1786341b70",
      "transactionIndex": "0x1",
      "blockHash": "0x1590c6fe9c8fff56b5d26346c420667663277b57fc7668f37518099bcab03c4f",
      "blockNumber": "0xfe4e1fe",
      "gasUsed": "0x19ae0",
      "effectiveGasPrice": "0x989680",
      "from": "0x4377cc196ba14dbc6b082b26217d49b5999a151d",
      "to": "0xf26ce9d5a99dd9392c203ac29c4d3b6903cb2457",
      "contractAddress": null,
      "gasUsedForL1": "0x854a",
      "l1BlockNumber": "0x140d0c3"
    },
    {
      "status": "0x1",
      "cumulativeGasUsed": "0xdbe40",
      "logs": [],
      "logsBloom": "0x00000000000000000000000000000000000000000000000000000000000000000000000000000000000000000000000000000000000000000000000000000000000000000000000000000000000000000000000000000000000000000000000000000000000000000000000000000000000000000000000000000000000000000000000000000000000000000000000000000000000000000000000000000000000000000000000000000000000000000000000000000000000000000000000000000000000000000000000000000000000000000000000000000000000000000000000000000000000000000000000000000000000000000000000000000000",
      "type": "0x2",
      "transactionHash": "0xf6387946611017d8ce53bd10fd175a416346bcf7833552c5e3cb8aec835bc169",
      "transactionIndex": "0x4",
      "blockHash": "0xf0c92c5ddcfc7528a21d0beb7025b9858c3930adb49b76c028ee12388f8f2567",
      "blockNumber": "0xfe4e204",
      "gasUsed": "0x11820",
      "effectiveGasPrice": "0x989680",
      "from": "0x4377cc196ba14dbc6b082b26217d49b5999a151d",
      "to": "0xe9000001762ada8932fbcc27020fd4b92a1d8d05",
      "contractAddress": null,
      "gasUsedForL1": "0x62df",
      "l1BlockNumber": "0x140d0c3"
    }
  ],
  "libraries": [],
  "pending": [],
  "returns": {},
  "timestamp": 1729646527,
  "chain": 42161,
  "commit": "19b895a"
}