{
  "transactions": [
    {
      "hash": null,
      "transactionType": "CALL",
      "contractName": null,
      "contractAddress": "0x71f468c3a86229c8ad2285b5ca8afb6ef08dcaa7",
      "function": "updateWhitelistHandler(address,bool)",
      "arguments": [
        "0xF26ce9D5A99DD9392c203aC29c4d3b6903Cb2457",
        "true"
      ],
      "transaction": {
        "from": "0x4377cc196ba14dbc6b082b26217d49b5999a151d",
        "to": "0x71f468c3a86229c8ad2285b5ca8afb6ef08dcaa7",
        "gas": "0x22fc6",
        "value": "0x0",
        "input": "0x05d293e9000000000000000000000000f26ce9d5a99dd9392c203ac29c4d3b6903cb24570000000000000000000000000000000000000000000000000000000000000001",
        "nonce": "0x10",
        "chainId": "0xa4b1"
      },
      "additionalContracts": [],
      "isFixedGasLimit": false
    },
    {
      "hash": null,
      "transactionType": "CALL",
      "contractName": null,
      "contractAddress": "0xf26ce9d5a99dd9392c203ac29c4d3b6903cb2457",
      "function": "updateHandlerSettings(address,bool,address,uint64,address)",
      "arguments": [
        "0x71f468c3A86229c8AD2285B5cA8aFB6Ef08dCaa7",
        "true",
        "0x0000000000000000000000000000000000000000",
        "21600",
        "0x0000000000000000000000000000000000000000"
      ],
      "transaction": {
        "from": "0x4377cc196ba14dbc6b082b26217d49b5999a151d",
        "to": "0xf26ce9d5a99dd9392c203ac29c4d3b6903cb2457",
        "gas": "0x304f4",
        "value": "0x0",
        "input": "0x893e81ec00000000000000000000000071f468c3a86229c8ad2285b5ca8afb6ef08dcaa70000000000000000000000000000000000000000000000000000000000000001000000000000000000000000000000000000000000000000000000000000000000000000000000000000000000000000000000000000000000000000000054600000000000000000000000000000000000000000000000000000000000000000",
        "nonce": "0x11",
        "chainId": "0xa4b1"
      },
      "additionalContracts": [],
      "isFixedGasLimit": false
    },
    {
      "hash": null,
      "transactionType": "CALL",
      "contractName": null,
      "contractAddress": "0x71f468c3a86229c8ad2285b5ca8afb6ef08dcaa7",
      "function": "updateWhitelistHandlerWithApp(address,address,bool)",
      "arguments": [
        "0xF26ce9D5A99DD9392c203aC29c4d3b6903Cb2457",
        "0x897c5f3A428067C524e75fB5d0e55324d5888c28",
        "true"
      ],
      "transaction": {
        "from": "0x4377cc196ba14dbc6b082b26217d49b5999a151d",
        "to": "0x71f468c3a86229c8ad2285b5ca8afb6ef08dcaa7",
        "gas": "0x26488",
        "value": "0x0",
        "input": "0x5ab70f56000000000000000000000000f26ce9d5a99dd9392c203ac29c4d3b6903cb2457000000000000000000000000897c5f3a428067c524e75fb5d0e55324d5888c280000000000000000000000000000000000000000000000000000000000000001",
        "nonce": "0x12",
        "chainId": "0xa4b1"
      },
      "additionalContracts": [],
      "isFixedGasLimit": false
    }
  ],
  "receipts": [],
  "libraries": [],
  "pending": [],
  "returns": {},
  "timestamp": 1729491478,
  "chain": 42161,
  "commit": "19b895a"
}