{
  "transactions": [
    {
      "hash": "0xb8a728b6d8c77532d39f3e6c9f7ca90c44260792160b34833cbfdacc66fa6382",
      "transactionType": "CALL",
      "contractName": null,
      "contractAddress": "0xc87520c85c56eb83122aba145912a5f7a7f927c5",
      "function": "updateWhitelistHandler(address,bool)",
      "arguments": [
        "0xE7E225194e81729b27e8FA5c1ebD801D502c016b",
        "true"
      ],
      "transaction": {
        "from": "0x71e4cf78d8842c452de813eb78e13c0db463fed9",
        "to": "0xc87520c85c56eb83122aba145912a5f7a7f927c5",
        "gas": "0x10167",
        "value": "0x0",
        "input": "0x05d293e9000000000000000000000000e7e225194e81729b27e8fa5c1ebd801d502c016b0000000000000000000000000000000000000000000000000000000000000001",
        "nonce": "0xd",
        "chainId": "0x92"
      },
      "additionalContracts": [],
      "isFixedGasLimit": false
    },
    {
      "hash": "0x3c0d0c181dc5a98db86ceac9f1cb197c0fb582c24ea79834cc5956445d374871",
      "transactionType": "CALL",
      "contractName": null,
      "contractAddress": "0xe7e225194e81729b27e8fa5c1ebd801d502c016b",
      "function": "updateHandlerSettings(address,bool,address,uint64,address)",
      "arguments": [
        "0xC87520C85c56Eb83122ABA145912A5F7a7f927c5",
        "true",
        "0x0000000000000000000000000000000000000000",
        "21600",
        "0x0000000000000000000000000000000000000000"
      ],
      "transaction": {
        "from": "0x71e4cf78d8842c452de813eb78e13c0db463fed9",
        "to": "0xe7e225194e81729b27e8fa5c1ebd801d502c016b",
        "gas": "0x18d7d",
        "value": "0x0",
        "input": "0x893e81ec000000000000000000000000c87520c85c56eb83122aba145912a5f7a7f927c50000000000000000000000000000000000000000000000000000000000000001000000000000000000000000000000000000000000000000000000000000000000000000000000000000000000000000000000000000000000000000000054600000000000000000000000000000000000000000000000000000000000000000",
        "nonce": "0xe",
        "chainId": "0x92"
      },
      "additionalContracts": [],
      "isFixedGasLimit": false
    },
    {
      "hash": "0x95e7ceed8eda09f8e29b91ed69d3dbad3c04e418c330bcaea751d6c7ca5766a2",
      "transactionType": "CALL",
      "contractName": null,
      "contractAddress": "0xc87520c85c56eb83122aba145912a5f7a7f927c5",
      "function": "updateWhitelistHandlerWithApp(address,address,bool)",
      "arguments": [
        "0xE7E225194e81729b27e8FA5c1ebD801D502c016b",
        "0x2bE4413949868F3211652068069c374A58c9c1A0",
        "true"
      ],
      "transaction": {
        "from": "0x71e4cf78d8842c452de813eb78e13c0db463fed9",
        "to": "0xc87520c85c56eb83122aba145912a5f7a7f927c5",
        "gas": "0x106e7",
        "value": "0x0",
        "input": "0x5ab70f56000000000000000000000000e7e225194e81729b27e8fa5c1ebd801d502c016b0000000000000000000000002be4413949868f3211652068069c374a58c9c1a00000000000000000000000000000000000000000000000000000000000000001",
        "nonce": "0xf",
        "chainId": "0x92"
      },
      "additionalContracts": [],
      "isFixedGasLimit": false
    }
  ],
  "receipts": [
    {
      "status": "0x1",
      "cumulativeGasUsed": "0xc176",
      "logs": [
        {
          "address": "0xc87520c85c56eb83122aba145912a5f7a7f927c5",
          "topics": [
            "0x48fd1bb994f7f5d40a6f2e8e4b9d8060239dc6e26f0ad2be628f9ac597e07b71"
          ],
          "data": "0x000000000000000000000000e7e225194e81729b27e8fa5c1ebd801d502c016b0000000000000000000000000000000000000000000000000000000000000001",
          "blockHash": "0xda3c710a4ee04fbd3d8cda96a1e3385a076ace7d14aa8d85a8c2f574c927eb27",
          "blockNumber": "0x1b57f8",
          "transactionHash": "0xb8a728b6d8c77532d39f3e6c9f7ca90c44260792160b34833cbfdacc66fa6382",
          "transactionIndex": "0x0",
          "logIndex": "0x0",
          "removed": false
        }
      ],
      "logsBloom": "0x00000000000000000000000000000000000000000040040000000000000000000000000000000000000000000000000000000000000000000000000000000000000000000000000000000000000000000000000000000000000000000000000000000000000000020000000000000000000002000000000000000000000000000000000000000000000000000000000000000000004000000000000000020000000000000000000000000000000000000000000000000000000000000000000000000000000000000000000000000000000000000000000000000000000000000000000000000000000000000000000000000000000000000000000000000000",
      "type": "0x2",
      "transactionHash": "0xb8a728b6d8c77532d39f3e6c9f7ca90c44260792160b34833cbfdacc66fa6382",
      "transactionIndex": "0x0",
      "blockHash": "0xda3c710a4ee04fbd3d8cda96a1e3385a076ace7d14aa8d85a8c2f574c927eb27",
      "blockNumber": "0x1b57f8",
      "gasUsed": "0xc176",
      "effectiveGasPrice": "0x3b9aca01",
      "from": "0x71e4cf78d8842c452de813eb78e13c0db463fed9",
      "to": "0xc87520c85c56eb83122aba145912a5f7a7f927c5",
      "contractAddress": null
    },
    {
      "status": "0x1",
      "cumulativeGasUsed": "0x11a7b",
      "logs": [],
      "logsBloom": "0x00000000000000000000000000000000000000000000000000000000000000000000000000000000000000000000000000000000000000000000000000000000000000000000000000000000000000000000000000000000000000000000000000000000000000000000000000000000000000000000000000000000000000000000000000000000000000000000000000000000000000000000000000000000000000000000000000000000000000000000000000000000000000000000000000000000000000000000000000000000000000000000000000000000000000000000000000000000000000000000000000000000000000000000000000000000",
      "type": "0x2",
      "transactionHash": "0x3c0d0c181dc5a98db86ceac9f1cb197c0fb582c24ea79834cc5956445d374871",
      "transactionIndex": "0x0",
      "blockHash": "0xe4ae712e944a43dd44b5adc20039c9503df975e7055e17aa4345591625d2565c",
      "blockNumber": "0x1b57f9",
      "gasUsed": "0x11a7b",
      "effectiveGasPrice": "0x3b9aca01",
      "from": "0x71e4cf78d8842c452de813eb78e13c0db463fed9",
      "to": "0xe7e225194e81729b27e8fa5c1ebd801d502c016b",
      "contractAddress": null
    },
    {
      "status": "0x1",
      "cumulativeGasUsed": "0x1e013",
      "logs": [
        {
          "address": "0xc87520c85c56eb83122aba145912a5f7a7f927c5",
          "topics": [
            "0xdb7869e7b3ce14388c8d68c7590a2ec6f7cc0a26d12c7c3c58e1927c7520e264"
          ],
          "data": "0x000000000000000000000000e7e225194e81729b27e8fa5c1ebd801d502c016b0000000000000000000000002be4413949868f3211652068069c374a58c9c1a00000000000000000000000000000000000000000000000000000000000000001",
          "blockHash": "0xe4ae712e944a43dd44b5adc20039c9503df975e7055e17aa4345591625d2565c",
          "blockNumber": "0x1b57f9",
          "transactionHash": "0x95e7ceed8eda09f8e29b91ed69d3dbad3c04e418c330bcaea751d6c7ca5766a2",
          "transactionIndex": "0x1",
          "logIndex": "0x0",
          "removed": false
        }
      ],
      "logsBloom": "0x00000000000000000000000000000000000000000000040000004000000000000000000000000000000000000000000000000000000000000000000000000000000000000000000000000000000000000010000000000000000000000000000000000000000000020000000000000000000000000000000000000000000000000000000000000000000000000000000000000000000000000000000000020000000000000000000000000000000000000000000000000000000000000000000000000000000000000000000000000000000000000000000000000000000000000000000000000000000000000000000000000000000000000000000000000004",
      "type": "0x2",
      "transactionHash": "0x95e7ceed8eda09f8e29b91ed69d3dbad3c04e418c330bcaea751d6c7ca5766a2",
      "transactionIndex": "0x1",
      "blockHash": "0xe4ae712e944a43dd44b5adc20039c9503df975e7055e17aa4345591625d2565c",
      "blockNumber": "0x1b57f9",
      "gasUsed": "0xc598",
      "effectiveGasPrice": "0x3b9aca01",
      "from": "0x71e4cf78d8842c452de813eb78e13c0db463fed9",
      "to": "0xc87520c85c56eb83122aba145912a5f7a7f927c5",
      "contractAddress": null
    }
  ],
  "libraries": [],
  "pending": [],
  "returns": {},
  "timestamp": 1735352929,
  "chain": 146,
  "commit": "307b49a"
}