{
  "transactions": [
    {
      "hash": "0x516d33eafb0dfb9ecf70eddf39751f75c098e0b9cc46f0654ac335c44e0210c4",
      "transactionType": "CREATE",
      "contractName": "BoundedTTLHook_0Day",
      "contractAddress": "0xc1e0e62ea09ccbac4cd187dafdbb0fb9d24add2b",
      "function": null,
      "arguments": null,
      "transaction": {
        "from": "0x4377cc196ba14dbc6b082b26217d49b5999a151d",
        "gas": "0x75f7e",
        "value": "0x0",
        "input": "0x6080604052348015600f57600080fd5b503380603557604051631e4fbdf760e01b81526000600482015260240160405180910390fd5b603c816041565b506091565b600080546001600160a01b038381166001600160a01b0319831681178455604051919092169283917f8be0079c531659141344cd1fd0a4f28419497f9722a3daafe3b4186f6b6457e09190a35050565b61054b806100a06000396000f3fe608060405234801561001057600080fd5b50600436106101215760003560e01c806387983d66116100ad578063afd929fe11610071578063afd929fe14610126578063c0be093214610126578063d6067beb14610126578063e849a8b614610126578063f2fde38b1461019a57600080fd5b806387983d66146101265780638b5ef33a146101265780638da5cb5b146101685780638e007f7014610187578063a2b330b51461012657600080fd5b8063653c5ed0116100f4578063653c5ed014610126578063698f324d14610126578063715018a61461014d578063753f19fb1461015557806376f1eceb1461012657600080fd5b806327358593146101265780633fc321731461012657806340b62019146101265780636354b6611461013a575b600080fd5b6101386101343660046103d7565b5050565b005b610138610148366004610460565b6101ad565b610138610278565b6101386101633660046103d7565b61028c565b600054604080516001600160a01b039092168252519081900360200190f35b610138610195366004610484565b6102e4565b6101386101a8366004610460565b610317565b6101b561035a565b6040805160c0810182526000808252602082018181526001838501818152606085018481526080860194855260a08601928352955163bdab027b60e01b815230600482015294511515602486015291511515604485015290511515606484015292511515608483015251151560a48201529051151560c48201526001600160a01b0382169063bdab027b9060e401600060405180830381600087803b15801561025d57600080fd5b505af1158015610271573d6000803e3d6000fd5b5050505050565b61028061035a565b61028a6000610387565b565b60008061029b838501856104c2565b6001600160a01b038216600090815260016020526040902054919350915060ff166102c557600080fd5b620151806102d342836104ee565b11156102de57600080fd5b50505050565b6102ec61035a565b6001600160a01b03919091166000908152600160205260409020805460ff1916911515919091179055565b61031f61035a565b6001600160a01b03811661034e57604051631e4fbdf760e01b8152600060048201526024015b60405180910390fd5b61035781610387565b50565b6000546001600160a01b0316331461028a5760405163118cdaa760e01b8152336004820152602401610345565b600080546001600160a01b038381166001600160a01b0319831681178455604051919092169283917f8be0079c531659141344cd1fd0a4f28419497f9722a3daafe3b4186f6b6457e09190a35050565b600080602083850312156103ea57600080fd5b823567ffffffffffffffff81111561040157600080fd5b8301601f8101851361041257600080fd5b803567ffffffffffffffff81111561042957600080fd5b85602082840101111561043b57600080fd5b6020919091019590945092505050565b6001600160a01b038116811461035757600080fd5b60006020828403121561047257600080fd5b813561047d8161044b565b9392505050565b6000806040838503121561049757600080fd5b82356104a28161044b565b9150602083013580151581146104b757600080fd5b809150509250929050565b600080604083850312156104d557600080fd5b82356104e08161044b565b946020939093013593505050565b8181038181111561050f57634e487b7160e01b600052601160045260246000fd5b9291505056fea264697066735822122031ea2e1514b877e658937fcfc32f09c3e70868ef7061508a4da1e64bad710fcb64736f6c634300081a0033",
        "nonce": "0x2",
        "chainId": "0x2105"
      },
      "additionalContracts": [],
      "isFixedGasLimit": false
    },
    {
      "hash": "0xd44a12c2ee9506177b18fefc6f24ecdbbe7262b8f7d801ebd6d502931dee6389",
      "transactionType": "CALL",
      "contractName": null,
      "contractAddress": "0xf26ce9d5a99dd9392c203ac29c4d3b6903cb2457",
      "function": "registerHook(address,(bool,bool,bool,bool,bool,bool))",
      "arguments": [
        "0xc1e0e62Ea09Ccbac4cd187DAFDBB0Fb9D24ADd2b",
        "(false, false, true, false, false, true)"
      ],
      "transaction": {
        "from": "0x4377cc196ba14dbc6b082b26217d49b5999a151d",
        "to": "0xf26ce9d5a99dd9392c203ac29c4d3b6903cb2457",
        "gas": "0x17f8a",
        "value": "0x0",
        "input": "0xbdab027b000000000000000000000000c1e0e62ea09ccbac4cd187dafdbb0fb9d24add2b000000000000000000000000000000000000000000000000000000000000000000000000000000000000000000000000000000000000000000000000000000000000000000000000000000000000000000000000000000000000000000000001000000000000000000000000000000000000000000000000000000000000000000000000000000000000000000000000000000000000000000000000000000000000000000000000000000000000000000000000000000000000000000000001",
        "nonce": "0x3",
        "chainId": "0x2105"
      },
      "additionalContracts": [],
      "isFixedGasLimit": false
    },
    {
      "hash": "0x060acd090d2d2faa6e76037545e3ce899e17de7b5a49dd040f26de281d83a7f6",
      "transactionType": "CALL",
      "contractName": "BoundedTTLHook_0Day",
      "contractAddress": "0xc1e0e62ea09ccbac4cd187dafdbb0fb9d24add2b",
      "function": "updateWhitelistedAppsStatus(address,bool)",
      "arguments": [
        "0xF26ce9D5A99DD9392c203aC29c4d3b6903Cb2457",
        "true"
      ],
      "transaction": {
        "from": "0x4377cc196ba14dbc6b082b26217d49b5999a151d",
        "to": "0xc1e0e62ea09ccbac4cd187dafdbb0fb9d24add2b",
        "gas": "0x10915",
        "value": "0x0",
        "input": "0x8e007f70000000000000000000000000f26ce9d5a99dd9392c203ac29c4d3b6903cb24570000000000000000000000000000000000000000000000000000000000000001",
        "nonce": "0x4",
        "chainId": "0x2105"
      },
      "additionalContracts": [],
      "isFixedGasLimit": false
    },
    {
      "hash": "0xe99c5438bbe214b992ce13bf94745f315af1c29d890fd716d6db6858c8197d1e",
      "transactionType": "CREATE",
      "contractName": "BoundedTTLHook_1Week",
      "contractAddress": "0x2bb43a615ade175bfa2359fb8a45fab28109cdff",
      "function": null,
      "arguments": null,
      "transaction": {
        "from": "0x4377cc196ba14dbc6b082b26217d49b5999a151d",
        "gas": "0x75f6e",
        "value": "0x0",
        "input": "0x6080604052348015600f57600080fd5b503380603557604051631e4fbdf760e01b81526000600482015260240160405180910390fd5b603c816041565b506091565b600080546001600160a01b038381166001600160a01b0319831681178455604051919092169283917f8be0079c531659141344cd1fd0a4f28419497f9722a3daafe3b4186f6b6457e09190a35050565b61054b806100a06000396000f3fe608060405234801561001057600080fd5b50600436106101215760003560e01c806387983d66116100ad578063afd929fe11610071578063afd929fe14610126578063c0be093214610126578063d6067beb14610126578063e849a8b614610126578063f2fde38b1461019a57600080fd5b806387983d66146101265780638b5ef33a146101265780638da5cb5b146101685780638e007f7014610187578063a2b330b51461012657600080fd5b8063653c5ed0116100f4578063653c5ed014610126578063698f324d14610126578063715018a61461014d578063753f19fb1461015557806376f1eceb1461012657600080fd5b806327358593146101265780633fc321731461012657806340b62019146101265780636354b6611461013a575b600080fd5b6101386101343660046103d7565b5050565b005b610138610148366004610460565b6101ad565b610138610278565b6101386101633660046103d7565b61028c565b600054604080516001600160a01b039092168252519081900360200190f35b610138610195366004610484565b6102e4565b6101386101a8366004610460565b610317565b6101b561035a565b6040805160c0810182526000808252602082018181526001838501818152606085018481526080860194855260a08601928352955163bdab027b60e01b815230600482015294511515602486015291511515604485015290511515606484015292511515608483015251151560a48201529051151560c48201526001600160a01b0382169063bdab027b9060e401600060405180830381600087803b15801561025d57600080fd5b505af1158015610271573d6000803e3d6000fd5b5050505050565b61028061035a565b61028a6000610387565b565b60008061029b838501856104c2565b6001600160a01b038216600090815260016020526040902054919350915060ff166102c557600080fd5b62093a806102d342836104ee565b11156102de57600080fd5b50505050565b6102ec61035a565b6001600160a01b03919091166000908152600160205260409020805460ff1916911515919091179055565b61031f61035a565b6001600160a01b03811661034e57604051631e4fbdf760e01b8152600060048201526024015b60405180910390fd5b61035781610387565b50565b6000546001600160a01b0316331461028a5760405163118cdaa760e01b8152336004820152602401610345565b600080546001600160a01b038381166001600160a01b0319831681178455604051919092169283917f8be0079c531659141344cd1fd0a4f28419497f9722a3daafe3b4186f6b6457e09190a35050565b600080602083850312156103ea57600080fd5b823567ffffffffffffffff81111561040157600080fd5b8301601f8101851361041257600080fd5b803567ffffffffffffffff81111561042957600080fd5b85602082840101111561043b57600080fd5b6020919091019590945092505050565b6001600160a01b038116811461035757600080fd5b60006020828403121561047257600080fd5b813561047d8161044b565b9392505050565b6000806040838503121561049757600080fd5b82356104a28161044b565b9150602083013580151581146104b757600080fd5b809150509250929050565b600080604083850312156104d557600080fd5b82356104e08161044b565b946020939093013593505050565b8181038181111561050f57634e487b7160e01b600052601160045260246000fd5b9291505056fea2646970667358221220d1998ec825871431b289b2b844515f2669a2bf6b71f2899500125f5d161002eb64736f6c634300081a0033",
        "nonce": "0x5",
        "chainId": "0x2105"
      },
      "additionalContracts": [],
      "isFixedGasLimit": false
    },
    {
      "hash": "0xf1d48cdd877f5ace5943675782ba173eeda6651b4568eaaeb04e4ccd2813dd6d",
      "transactionType": "CALL",
      "contractName": null,
      "contractAddress": "0xf26ce9d5a99dd9392c203ac29c4d3b6903cb2457",
      "function": "registerHook(address,(bool,bool,bool,bool,bool,bool))",
      "arguments": [
        "0x2bB43a615ADE175bfa2359fb8A45FaB28109CDfF",
        "(false, false, true, false, false, true)"
      ],
      "transaction": {
        "from": "0x4377cc196ba14dbc6b082b26217d49b5999a151d",
        "to": "0xf26ce9d5a99dd9392c203ac29c4d3b6903cb2457",
        "gas": "0x17f8a",
        "value": "0x0",
        "input": "0xbdab027b0000000000000000000000002bb43a615ade175bfa2359fb8a45fab28109cdff000000000000000000000000000000000000000000000000000000000000000000000000000000000000000000000000000000000000000000000000000000000000000000000000000000000000000000000000000000000000000000000001000000000000000000000000000000000000000000000000000000000000000000000000000000000000000000000000000000000000000000000000000000000000000000000000000000000000000000000000000000000000000000000001",
        "nonce": "0x6",
        "chainId": "0x2105"
      },
      "additionalContracts": [],
      "isFixedGasLimit": false
    },
    {
      "hash": "0xc13abd6a36d9220ce26302814e7e48ce27eab760400cacc4fd743630bf926865",
      "transactionType": "CALL",
      "contractName": "BoundedTTLHook_1Week",
      "contractAddress": "0x2bb43a615ade175bfa2359fb8a45fab28109cdff",
      "function": "updateWhitelistedAppsStatus(address,bool)",
      "arguments": [
        "0xF26ce9D5A99DD9392c203aC29c4d3b6903Cb2457",
        "true"
      ],
      "transaction": {
        "from": "0x4377cc196ba14dbc6b082b26217d49b5999a151d",
        "to": "0x2bb43a615ade175bfa2359fb8a45fab28109cdff",
        "gas": "0x10915",
        "value": "0x0",
        "input": "0x8e007f70000000000000000000000000f26ce9d5a99dd9392c203ac29c4d3b6903cb24570000000000000000000000000000000000000000000000000000000000000001",
        "nonce": "0x7",
        "chainId": "0x2105"
      },
      "additionalContracts": [],
      "isFixedGasLimit": false
    }
  ],
  "receipts": [
    {
      "status": "0x1",
      "cumulativeGasUsed": "0x14beabc",
      "logs": [
        {
          "address": "0xc1e0e62ea09ccbac4cd187dafdbb0fb9d24add2b",
          "topics": [
            "0x8be0079c531659141344cd1fd0a4f28419497f9722a3daafe3b4186f6b6457e0",
            "0x0000000000000000000000000000000000000000000000000000000000000000",
            "0x0000000000000000000000004377cc196ba14dbc6b082b26217d49b5999a151d"
          ],
          "data": "0x",
          "blockHash": "0x4001faca538fd2c98b31c11973454872b4cf7020884a004976b2b989ffc8adcc",
          "blockNumber": "0x145cb89",
          "transactionHash": "0x516d33eafb0dfb9ecf70eddf39751f75c098e0b9cc46f0654ac335c44e0210c4",
          "transactionIndex": "0x75",
          "logIndex": "0xef",
          "removed": false
        }
      ],
      "logsBloom": "0x00000000000000000000000000000000000000000000000000800000000000000000000000000000000000000000000000000000000000000000000000000000000000000000000000000000000000000001000000000000000000000000000000000000020000000000000000000800000000000008000000000000000000400000000000000000000000000000000000000000000000000000000000000000000000000080000000000000000000000000000000004000000000000004000000000000000000000000000000000000000000000000000000002000000020000000000000000000000000000000000000000000000000000000000008000000",
      "type": "0x2",
      "transactionHash": "0x516d33eafb0dfb9ecf70eddf39751f75c098e0b9cc46f0654ac335c44e0210c4",
      "transactionIndex": "0x75",
      "blockHash": "0x4001faca538fd2c98b31c11973454872b4cf7020884a004976b2b989ffc8adcc",
      "blockNumber": "0x145cb89",
      "gasUsed": "0x5ac4b",
      "effectiveGasPrice": "0x3120ad",
      "from": "0x4377cc196ba14dbc6b082b26217d49b5999a151d",
      "to": null,
      "contractAddress": "0xc1e0e62ea09ccbac4cd187dafdbb0fb9d24add2b",
      "l1BaseFeeScalar": "0x8dd",
      "l1BlobBaseFee": "0x1",
      "l1BlobBaseFeeScalar": "0x101c12",
      "l1Fee": "0x48521cc8e2",
      "l1GasPrice": "0x202deb0a4",
      "l1GasUsed": "0x3de7"
    },
    {
      "status": "0x1",
      "cumulativeGasUsed": "0xe54717",
      "logs": [
        {
          "address": "0xf26ce9d5a99dd9392c203ac29c4d3b6903cb2457",
          "topics": [
            "0x20f3cf6d68c39945565b9d346072764b3ee941e3130b6414a1cd3b24c0b12229"
          ],
          "data": "0x000000000000000000000000c1e0e62ea09ccbac4cd187dafdbb0fb9d24add2b000000000000000000000000000000000000000000000000000000000000000000000000000000000000000000000000000000000000000000000000000000000000000000000000000000000000000000000000000000000000000000000001000000000000000000000000000000000000000000000000000000000000000000000000000000000000000000000000000000000000000000000000000000000000000000000000000000000000000000000000000000000000000000000001",
          "blockHash": "0x993814e3a4b448a6b151a5d8a559f64ea9ec290d4011a06abe2019334527bdc9",
          "blockNumber": "0x145cb8a",
          "transactionHash": "0xd44a12c2ee9506177b18fefc6f24ecdbbe7262b8f7d801ebd6d502931dee6389",
          "transactionIndex": "0x5e",
          "logIndex": "0x8c",
          "removed": false
        }
      ],
      "logsBloom": "0x00000000000000000000000000000000000000000000000000000000000000000000000000000000000000000000000000000000000000000000000000000000000000000008000020000000000000000000000000000000000000000000000000000000000000000000000000000000002000800000000000000000000000000000000000000000000000000000000000000000000000000000000000000000000000000000000000000000000000000000000000000020000000000000000000000010000000000000000000000000000000000000000000000000000000000000000000000000000000000000000000000000000000000000000000000000",
      "type": "0x2",
      "transactionHash": "0xd44a12c2ee9506177b18fefc6f24ecdbbe7262b8f7d801ebd6d502931dee6389",
      "transactionIndex": "0x5e",
      "blockHash": "0x993814e3a4b448a6b151a5d8a559f64ea9ec290d4011a06abe2019334527bdc9",
      "blockNumber": "0x145cb8a",
      "gasUsed": "0x115ae",
      "effectiveGasPrice": "0x311e82",
      "from": "0x4377cc196ba14dbc6b082b26217d49b5999a151d",
      "to": "0xf26ce9d5a99dd9392c203ac29c4d3b6903cb2457",
      "contractAddress": null,
      "l1BaseFeeScalar": "0x8dd",
      "l1BlobBaseFee": "0x1",
      "l1BlobBaseFeeScalar": "0x101c12",
      "l1Fee": "0x74d2f024d",
      "l1GasPrice": "0x202deb0a4",
      "l1GasUsed": "0x640"
    },
    {
      "status": "0x1",
      "cumulativeGasUsed": "0xe5fc58",
      "logs": [],
      "logsBloom": "0x00000000000000000000000000000000000000000000000000000000000000000000000000000000000000000000000000000000000000000000000000000000000000000000000000000000000000000000000000000000000000000000000000000000000000000000000000000000000000000000000000000000000000000000000000000000000000000000000000000000000000000000000000000000000000000000000000000000000000000000000000000000000000000000000000000000000000000000000000000000000000000000000000000000000000000000000000000000000000000000000000000000000000000000000000000000",
      "type": "0x2",
      "transactionHash": "0x060acd090d2d2faa6e76037545e3ce899e17de7b5a49dd040f26de281d83a7f6",
      "transactionIndex": "0x5f",
      "blockHash": "0x993814e3a4b448a6b151a5d8a559f64ea9ec290d4011a06abe2019334527bdc9",
      "blockNumber": "0x145cb8a",
      "gasUsed": "0xb541",
      "effectiveGasPrice": "0x311e82",
      "from": "0x4377cc196ba14dbc6b082b26217d49b5999a151d",
      "to": "0xc1e0e62ea09ccbac4cd187dafdbb0fb9d24add2b",
      "contractAddress": null,
      "l1BaseFeeScalar": "0x8dd",
      "l1BlobBaseFee": "0x1",
      "l1BlobBaseFeeScalar": "0x101c12",
      "l1Fee": "0x74d2f024d",
      "l1GasPrice": "0x202deb0a4",
      "l1GasUsed": "0x640"
    },
    {
      "status": "0x1",
      "cumulativeGasUsed": "0xeba897",
      "logs": [
        {
          "address": "0x2bb43a615ade175bfa2359fb8a45fab28109cdff",
          "topics": [
            "0x8be0079c531659141344cd1fd0a4f28419497f9722a3daafe3b4186f6b6457e0",
            "0x0000000000000000000000000000000000000000000000000000000000000000",
            "0x0000000000000000000000004377cc196ba14dbc6b082b26217d49b5999a151d"
          ],
          "data": "0x",
          "blockHash": "0x993814e3a4b448a6b151a5d8a559f64ea9ec290d4011a06abe2019334527bdc9",
          "blockNumber": "0x145cb8a",
          "transactionHash": "0xe99c5438bbe214b992ce13bf94745f315af1c29d890fd716d6db6858c8197d1e",
          "transactionIndex": "0x60",
          "logIndex": "0x8d",
          "removed": false
        }
      ],
      "logsBloom": "0x00000000000000000000000000000000000000000000000000800000000000000000000000000000000000000000000000000000000000000000000000000000000000000000400000000000000000000001000000000000000000000000000000000000020000000000000000000800000000000000000000000000000000400000000000000000000000000000000000000000000000000000000000000000000000000000000000000000000010000000000000004000000000000004000000000000000000000000400000000000000000000000000000000000000020000000000000000000000000000000000000000000000000000000000008000000",
      "type": "0x2",
      "transactionHash": "0xe99c5438bbe214b992ce13bf94745f315af1c29d890fd716d6db6858c8197d1e",
      "transactionIndex": "0x60",
      "blockHash": "0x993814e3a4b448a6b151a5d8a559f64ea9ec290d4011a06abe2019334527bdc9",
      "blockNumber": "0x145cb8a",
      "gasUsed": "0x5ac3f",
      "effectiveGasPrice": "0x311e82",
      "from": "0x4377cc196ba14dbc6b082b26217d49b5999a151d",
      "to": null,
      "contractAddress": "0x2bb43a615ade175bfa2359fb8a45fab28109cdff",
      "l1BaseFeeScalar": "0x8dd",
      "l1BlobBaseFee": "0x1",
      "l1BlobBaseFeeScalar": "0x101c12",
      "l1Fee": "0x48521cc8e2",
      "l1GasPrice": "0x202deb0a4",
      "l1GasUsed": "0x3de7"
    },
    {
      "status": "0x1",
      "cumulativeGasUsed": "0xecbe45",
      "logs": [
        {
          "address": "0xf26ce9d5a99dd9392c203ac29c4d3b6903cb2457",
          "topics": [
            "0x20f3cf6d68c39945565b9d346072764b3ee941e3130b6414a1cd3b24c0b12229"
          ],
          "data": "0x0000000000000000000000002bb43a615ade175bfa2359fb8a45fab28109cdff000000000000000000000000000000000000000000000000000000000000000000000000000000000000000000000000000000000000000000000000000000000000000000000000000000000000000000000000000000000000000000000001000000000000000000000000000000000000000000000000000000000000000000000000000000000000000000000000000000000000000000000000000000000000000000000000000000000000000000000000000000000000000000000001",
          "blockHash": "0x993814e3a4b448a6b151a5d8a559f64ea9ec290d4011a06abe2019334527bdc9",
          "blockNumber": "0x145cb8a",
          "transactionHash": "0xf1d48cdd877f5ace5943675782ba173eeda6651b4568eaaeb04e4ccd2813dd6d",
          "transactionIndex": "0x61",
          "logIndex": "0x8e",
          "removed": false
        }
      ],
      "logsBloom": "0x00000000000000000000000000000000000000000000000000000000000000000000000000000000000000000000000000000000000000000000000000000000000000000008000020000000000000000000000000000000000000000000000000000000000000000000000000000000002000800000000000000000000000000000000000000000000000000000000000000000000000000000000000000000000000000000000000000000000000000000000000000020000000000000000000000010000000000000000000000000000000000000000000000000000000000000000000000000000000000000000000000000000000000000000000000000",
      "type": "0x2",
      "transactionHash": "0xf1d48cdd877f5ace5943675782ba173eeda6651b4568eaaeb04e4ccd2813dd6d",
      "transactionIndex": "0x61",
      "blockHash": "0x993814e3a4b448a6b151a5d8a559f64ea9ec290d4011a06abe2019334527bdc9",
      "blockNumber": "0x145cb8a",
      "gasUsed": "0x115ae",
      "effectiveGasPrice": "0x311e82",
      "from": "0x4377cc196ba14dbc6b082b26217d49b5999a151d",
      "to": "0xf26ce9d5a99dd9392c203ac29c4d3b6903cb2457",
      "contractAddress": null,
      "l1BaseFeeScalar": "0x8dd",
      "l1BlobBaseFee": "0x1",
      "l1BlobBaseFeeScalar": "0x101c12",
      "l1Fee": "0x74d2f024d",
      "l1GasPrice": "0x202deb0a4",
      "l1GasUsed": "0x640"
    },
    {
      "status": "0x1",
      "cumulativeGasUsed": "0xed7386",
      "logs": [],
      "logsBloom": "0x00000000000000000000000000000000000000000000000000000000000000000000000000000000000000000000000000000000000000000000000000000000000000000000000000000000000000000000000000000000000000000000000000000000000000000000000000000000000000000000000000000000000000000000000000000000000000000000000000000000000000000000000000000000000000000000000000000000000000000000000000000000000000000000000000000000000000000000000000000000000000000000000000000000000000000000000000000000000000000000000000000000000000000000000000000000",
      "type": "0x2",
      "transactionHash": "0xc13abd6a36d9220ce26302814e7e48ce27eab760400cacc4fd743630bf926865",
      "transactionIndex": "0x62",
      "blockHash": "0x993814e3a4b448a6b151a5d8a559f64ea9ec290d4011a06abe2019334527bdc9",
      "blockNumber": "0x145cb8a",
      "gasUsed": "0xb541",
      "effectiveGasPrice": "0x311e82",
      "from": "0x4377cc196ba14dbc6b082b26217d49b5999a151d",
      "to": "0x2bb43a615ade175bfa2359fb8a45fab28109cdff",
      "contractAddress": null,
      "l1BaseFeeScalar": "0x8dd",
      "l1BlobBaseFee": "0x1",
      "l1BlobBaseFeeScalar": "0x101c12",
      "l1Fee": "0x74d2f024d",
      "l1GasPrice": "0x202deb0a4",
      "l1GasUsed": "0x640"
    }
  ],
  "libraries": [],
  "pending": [],
  "returns": {},
  "timestamp": 1729491967,
  "chain": 8453,
  "commit": "19b895a"
}