{
  "transactions": [
    {
      "hash": "0x8f08213e3d40bcad15bb9ae227a45c74580676b53a27d99f6a8fe9eb076fc54a",
      "transactionType": "CALL",
      "contractName": null,
      "contractAddress": "0xe7e225194e81729b27e8fa5c1ebd801d502c016b",
      "function": "registerHook(address,(bool,bool,bool,bool,bool,bool))",
      "arguments": [
        "0x654118756a8A94c79aeA82104C7EC90659d77613",
        "(false, false, true, false, false, true)"
      ],
      "transaction": {
        "from": "0x71e4cf78d8842c452de813eb78e13c0db463fed9",
        "to": "0xe7e225194e81729b27e8fa5c1ebd801d502c016b",
        "gas": "0x18588",
        "value": "0x0",
        "input": "0xbdab027b000000000000000000000000654118756a8a94c79aea82104c7ec90659d77613000000000000000000000000000000000000000000000000000000000000000000000000000000000000000000000000000000000000000000000000000000000000000000000000000000000000000000000000000000000000000000000001000000000000000000000000000000000000000000000000000000000000000000000000000000000000000000000000000000000000000000000000000000000000000000000000000000000000000000000000000000000000000000000001",
        "nonce": "0x12",
        "chainId": "0x92"
      },
      "additionalContracts": [],
      "isFixedGasLimit": false
    },
    {
      "hash": "0x4b5d932e8dd60daf0536e3d5ff5befdb18a4bd53f1dd4db207fa54ff45dc1e7d",
      "transactionType": "CALL",
      "contractName": null,
      "contractAddress": "0x654118756a8a94c79aea82104c7ec90659d77613",
      "function": "updateWhitelistedAppsStatus(address,bool)",
      "arguments": [
        "0x2bE4413949868F3211652068069c374A58c9c1A0",
        "true"
      ],
      "transaction": {
        "from": "0x71e4cf78d8842c452de813eb78e13c0db463fed9",
        "to": "0x654118756a8a94c79aea82104c7ec90659d77613",
        "gas": "0xfa54",
        "value": "0x0",
        "input": "0x8e007f700000000000000000000000002be4413949868f3211652068069c374a58c9c1a00000000000000000000000000000000000000000000000000000000000000001",
        "nonce": "0x13",
        "chainId": "0x92"
      },
      "additionalContracts": [],
      "isFixedGasLimit": false
    },
    {
      "hash": "0xa49df1b2f050059de456245721f57f67d497f35fa90abfeb6e7388b42ecc8d6e",
      "transactionType": "CALL",
      "contractName": null,
      "contractAddress": "0xe7e225194e81729b27e8fa5c1ebd801d502c016b",
      "function": "registerHook(address,(bool,bool,bool,bool,bool,bool))",
      "arguments": [
        "0xDb0Da9A929aC30E123695EEa8E44B1e167213dCb",
        "(false, false, true, false, false, true)"
      ],
      "transaction": {
        "from": "0x71e4cf78d8842c452de813eb78e13c0db463fed9",
        "to": "0xe7e225194e81729b27e8fa5c1ebd801d502c016b",
        "gas": "0x18588",
        "value": "0x0",
        "input": "0xbdab027b000000000000000000000000db0da9a929ac30e123695eea8e44b1e167213dcb000000000000000000000000000000000000000000000000000000000000000000000000000000000000000000000000000000000000000000000000000000000000000000000000000000000000000000000000000000000000000000000001000000000000000000000000000000000000000000000000000000000000000000000000000000000000000000000000000000000000000000000000000000000000000000000000000000000000000000000000000000000000000000000001",
        "nonce": "0x14",
        "chainId": "0x92"
      },
      "additionalContracts": [],
      "isFixedGasLimit": false
    },
    {
      "hash": "0xb55560037d1c78333548f235f30da349b321d1c5f5d89fb838c65b590a56b663",
      "transactionType": "CALL",
      "contractName": null,
      "contractAddress": "0xdb0da9a929ac30e123695eea8e44b1e167213dcb",
      "function": "updateWhitelistedAppsStatus(address,bool)",
      "arguments": [
        "0x2bE4413949868F3211652068069c374A58c9c1A0",
        "true"
      ],
      "transaction": {
        "from": "0x71e4cf78d8842c452de813eb78e13c0db463fed9",
        "to": "0xdb0da9a929ac30e123695eea8e44b1e167213dcb",
        "gas": "0xfa54",
        "value": "0x0",
        "input": "0x8e007f700000000000000000000000002be4413949868f3211652068069c374a58c9c1a00000000000000000000000000000000000000000000000000000000000000001",
        "nonce": "0x15",
        "chainId": "0x92"
      },
      "additionalContracts": [],
      "isFixedGasLimit": false
    }
  ],
  "receipts": [
    {
      "status": "0x1",
      "cumulativeGasUsed": "0x116aa",
      "logs": [],
      "logsBloom": "0x00000000000000000000000000000000000000000000000000000000000000000000000000000000000000000000000000000000000000000000000000000000000000000000000000000000000000000000000000000000000000000000000000000000000000000000000000000000000000000000000000000000000000000000000000000000000000000000000000000000000000000000000000000000000000000000000000000000000000000000000000000000000000000000000000000000000000000000000000000000000000000000000000000000000000000000000000000000000000000000000000000000000000000000000000000000",
      "type": "0x2",
      "transactionHash": "0x8f08213e3d40bcad15bb9ae227a45c74580676b53a27d99f6a8fe9eb076fc54a",
      "transactionIndex": "0x0",
      "blockHash": "0x6dc6a31164ed513a6c27cb7cdfbeee5135eaedca9b5843d784a3e20bd8c56f9f",
      "blockNumber": "0x1b591b",
      "gasUsed": "0x116aa",
      "effectiveGasPrice": "0x3b9aca01",
      "from": "0x71e4cf78d8842c452de813eb78e13c0db463fed9",
      "to": "0xe7e225194e81729b27e8fa5c1ebd801d502c016b",
      "contractAddress": null
    },
    {
      "status": "0x1",
      "cumulativeGasUsed": "0xbc25",
      "logs": [],
      "logsBloom": "0x00000000000000000000000000000000000000000000000000000000000000000000000000000000000000000000000000000000000000000000000000000000000000000000000000000000000000000000000000000000000000000000000000000000000000000000000000000000000000000000000000000000000000000000000000000000000000000000000000000000000000000000000000000000000000000000000000000000000000000000000000000000000000000000000000000000000000000000000000000000000000000000000000000000000000000000000000000000000000000000000000000000000000000000000000000000",
      "type": "0x2",
      "transactionHash": "0x4b5d932e8dd60daf0536e3d5ff5befdb18a4bd53f1dd4db207fa54ff45dc1e7d",
      "transactionIndex": "0x0",
      "blockHash": "0xe07b2b79b9e129a739818265edf2878f648928563d5564cafadbefc63be73342",
      "blockNumber": "0x1b591c",
      "gasUsed": "0xbc25",
      "effectiveGasPrice": "0x3b9aca01",
      "from": "0x71e4cf78d8842c452de813eb78e13c0db463fed9",
      "to": "0x654118756a8a94c79aea82104c7ec90659d77613",
      "contractAddress": null
    },
    {
      "status": "0x1",
      "cumulativeGasUsed": "0x1d2cf",
      "logs": [],
      "logsBloom": "0x00000000000000000000000000000000000000000000000000000000000000000000000000000000000000000000000000000000000000000000000000000000000000000000000000000000000000000000000000000000000000000000000000000000000000000000000000000000000000000000000000000000000000000000000000000000000000000000000000000000000000000000000000000000000000000000000000000000000000000000000000000000000000000000000000000000000000000000000000000000000000000000000000000000000000000000000000000000000000000000000000000000000000000000000000000000",
      "type": "0x2",
      "transactionHash": "0xa49df1b2f050059de456245721f57f67d497f35fa90abfeb6e7388b42ecc8d6e",
      "transactionIndex": "0x1",
      "blockHash": "0xe07b2b79b9e129a739818265edf2878f648928563d5564cafadbefc63be73342",
      "blockNumber": "0x1b591c",
      "gasUsed": "0x116aa",
      "effectiveGasPrice": "0x3b9aca01",
      "from": "0x71e4cf78d8842c452de813eb78e13c0db463fed9",
      "to": "0xe7e225194e81729b27e8fa5c1ebd801d502c016b",
      "contractAddress": null
    },
    {
      "status": "0x1",
      "cumulativeGasUsed": "0x28ef4",
      "logs": [],
      "logsBloom": "0x00000000000000000000000000000000000000000000000000000000000000000000000000000000000000000000000000000000000000000000000000000000000000000000000000000000000000000000000000000000000000000000000000000000000000000000000000000000000000000000000000000000000000000000000000000000000000000000000000000000000000000000000000000000000000000000000000000000000000000000000000000000000000000000000000000000000000000000000000000000000000000000000000000000000000000000000000000000000000000000000000000000000000000000000000000000",
      "type": "0x2",
      "transactionHash": "0xb55560037d1c78333548f235f30da349b321d1c5f5d89fb838c65b590a56b663",
      "transactionIndex": "0x2",
      "blockHash": "0xe07b2b79b9e129a739818265edf2878f648928563d5564cafadbefc63be73342",
      "blockNumber": "0x1b591c",
      "gasUsed": "0xbc25",
      "effectiveGasPrice": "0x3b9aca01",
      "from": "0x71e4cf78d8842c452de813eb78e13c0db463fed9",
      "to": "0xdb0da9a929ac30e123695eea8e44b1e167213dcb",
      "contractAddress": null
    }
  ],
  "libraries": [],
  "pending": [],
  "returns": {},
  "timestamp": 1735353339,
  "chain": 146,
  "commit": "307b49a"
}